:020000040800F2
:10000000FCFF0120513500009931000099310000BA
:1000100099310000993100009931000099310000B8
:1000200099310000993100009931000099310000A8
:100030009931000099310000993100009931000098
:100040009931000099310000993100009931000088
:100050009931000099310000993100009931000078
:100060009931000099310000993100009931000068
:100070009931000099310000993100009931000058
:100080009931000099310000993100009931000048
:100090009931000099310000993100009931000038
:1000A0009931000099310000993100009931000028
:1000B0009931000099310000993100009931000018
:1000C0009931000099310000993100009931000008
:1000D00099310000993100009931000099310000F8
:1000E00099310000993100009931000099310000E8
:1000F00099310000993100009931000099310000D8
:1001000099310000993100009931000099310000C7
:1001100099310000993100009931000099310000B7
:1001200099310000993100009931000099310000A7
:100130009931000099310000993100009931000097
:100140009931000099310000993100009931000087
:100150009931000099310000993100009931000077
:100160009931000099310000993100009931000067
:100170009931000099310000993100009931000057
:10018000993100009931000081B000F218010A682D
:10019000C2F3400181F00101C9B2C8B201B0704799
:1001A00081B000F214010A6800F21801096809041C
:1001B00042EA0101084601B07047FFFF81B0CDF867
:1001C00000E00B46FFF7ECFF00EA03029A4240F220
:1001D000000200D10122D0B2DDF800E001B070478A
:1001E00081B0CDF800E04FF000021F49884207D1EE
:1001F0001E490B681E490A681E490A601C4617E022
:100200001D49884207D11D490B681D490A681949D3
:100210000A601C460CE01B49884207D11A490B684A
:100220001A490A6813490A60194600E011460C464B
:1002300017490C6003461846FFF7A6FF70B914492A
:10024000096851B12CB905200A4C2468A047002048
:1002500005E0611E08460446FFE7ECE70120DDF8F3
:1002600000E001B0704700BF00540040E4000020EF
:10027000300100202C01002000580040E800002040
:1002800034010020005C0040EC0000203801002018
:10029000F000002083B0CDF800E0044604F0FF0336
:1002A0001A09104603F00F029446220A02F00F02C8
:1002B00093461AE02C4A029229E02C4A029226E048
:1002C0002B4A029223E02B4A029220E02A4A029211
:1002D0001DE02A4A02921AE0294A029217E0294AAE
:1002E000029214E0284A029211E00028E2D001288C
:1002F000E3D00228E4D00328E5D00428E6D005287E
:10030000E7D00628E8D00728E9D00828EAD001225B
:1003100002FA0CF2ADF8042002980A46BDF8041067
:1003200000F08CFF029A02F22001BCF1070F08D9FD
:100330000A1D1046ACF108021146019101460198D0
:1003400000E0604683004FF00F029A40D3430A68F2
:100350001A400A6082000BFA02F30A681A430A6024
:10036000DDF800E003B070470000024000040240E6
:1003700000080240000C024000100240001402403D
:1003800000180240001C02400020024081B00248D8
:10039000006801B0704700BF2801002081B00168EB
:1003A000C1F3401001B0704782B0CDF800E0029E6A
:1003B0004FF000055C4CA04206D15C4C27685C4CB9
:1003C00025685C4C256016E05B4CA04206D15B4C76
:1003D00027685B4C2568574C25600CE0594CA042BF
:1003E00007D1594C2768594C2568524C25603C462A
:1003F00000E02C462746564C276000F210054C00C2
:10040000A4B22C60B9460746904635461E4651496F
:100410003846FFF7D3FE88B94D4C24686CB1B9F16A
:10042000000F06D10420434C2468A0474FF6FF700C
:1004300076E0A9F101008146FFE7E8E70020019797
:1004400029463746019E7C1EA04226D206F21005A0
:1004500008EB000424782C603D4CD4F800908246D0
:100460000D463D493046FFF7A9FE88B9384C24684F
:100470006CB1B9F1000F06D104202E4C2468A047BE
:100480004FF6FF704CE0A9F101008146FFE7E8E775
:100490000AF1010420462946D5E706F2100508EBCB
:1004A000000424782C602A4C27680D462B493046DE
:1004B000FFF784FE70B9264C246854B137B9042084
:1004C0001C4C2468A0474FF6FF7029E0781E0746B1
:1004D000FFE7EBE7012D05D10125346865F34924D9
:1004E00034601CE00125346865F308243460184C3E
:1004F000276835461A492846FFF760FE78B9144C3C
:1005000024685CB137B904200A4C2468A0474FF630
:10051000FF7005E07C1E20460746FFE7EAE7002063
:10052000DDF800E002B0704700540040E400002015
:10053000300100202C01002000580040E80000207D
:1005400034010020005C0040EC0000203801002055
:10055000F0000020820007008000070084000700F0
:100560000100030081B00168C1F3801001B0704741
:1005700083B0CDF800E00024A10041180968B1F172
:10058000FF3F14D000F23401A300C91809680A46DD
:10059000C11809680190ADF8084008461146FFF7F8
:1005A00079FEBDF808400198641CA4B2E4E7DDF8C8
:1005B00000E003B07047FFFF82B0CDF800E00346D3
:1005C000191D0191FFF7E2FE40F2E83100FB01F254
:1005D00001990A601749096801F0F0010A091649F2
:1005E00089180878C0B2191D09688140196011493D
:1005F000096801F4E0518A0A0F4989180878C0B2E5
:1006000003F20802191D0968C1401160094909680F
:1006100001F460414A0B084989180978C8B203F20D
:100620000C02191D0968C1401160DDF800E002B03C
:10063000704700BF08380240F400002081B0026813
:10064000C2F3401101B9FAE7011D096888B201B08F
:100650007047FFFF81B01E4900EA010108460022F1
:1006600012E001202CE002202AE0042028E00820EB
:1006700026E0102024E0202022E0402020E08020FE
:100680001EE040F200101BE012498842E9D01249F6
:100690008842E8D011498842E7D011498842E6D023
:1006A00010498842E5D010498842E4D00F49884279
:1006B000E3D00F498842E2D00E498842E1D010468B
:1006C0000D49096841EA00020B490A6001B0704710
:1006D00000FCFFFF0000024000040240000802404E
:1006E000000C0240001002400014024000180240BA
:1006F000001C0240002002403038024082B0CDF899
:1007000000E0CFB201469846029B4FF000064FF042
:100710000005BF4CA14207D1BE4CD4F80090BE4C9E
:100720002568BE4C256016E0BD4CA14207D1BD4CEA
:100730002068BD4C2568B94C256081460BE0BB4C58
:10074000A14206D1BA4C2068BA4C2568B34C25604A
:1007500000E028468146B84CC4F80090F9E101F267
:1007600010057C00A4B244F00104A4B22C600196F0
:1007700016464F46019A01F214042568C5F3400459
:1007800064B9AD4C246844B127B90320A34C246854
:10079000A047E7E1781E0746FFE7ECE700250C6875
:1007A00065F38A240C6001F21404206800BF01F292
:1007B00018042468240440EA04042046012B05D1CF
:1007C00001250C6865F349240C6004E001250C68E0
:1007D00065F308240C60984C256891469846374686
:1007E0000E4696493046FFF7E9FC68B9924C2468FA
:1007F0004CB125B90320894C2468A047B2E16C1E96
:1008000020460546FFE7ECE707EB090506F2100472
:1008100024682C70B8F1010F13D1874C2168304641
:100820000568C5F340245CB9834C24683CB121B908
:1008300003207A4C2468A04794E1491EFFE7EFE7C4
:1008400012E07D4C216830460568C5F300245CB990
:10085000794C24683CB121B90320704C2468A0472E
:1008600080E1491EFFE7EFE77CE101250C6865F3B5
:100870008A240C6001250C6865F3CB240C6001F21E
:1008800010057C00A4B244F00104A4B22C604F46D1
:1008900001F214042568C5F3400464B9664C246869
:1008A00044B127B903205D4C2468A0475AE1781E63
:1008B0000746FFE7ECE701F21404206800BF01F2ED
:1008C000180424682404204300250C6865F38A2456
:1008D0000C60594C276801F214042568C5F38004A4
:1008E00064B9554C246844B127B903204B4C2468A3
:1008F000A04737E1781E0746FFE7ECE7012B05D15B
:1009000001250C6865F349240C6004E001250C689E
:1009100065F308240C60951901F2100424682C700A
:10092000741C151901F2100424682C70012B14D1C9
:10093000414C22680D68C5F3402464B93E4C2468DC
:1009400044B122B90320354C2468A0470AE1501E67
:100950000246FFE7EEE7084613E0374C22680D68D1
:10096000C5F3002464B9344C246844B122B903208F
:100970002A4C2468A047F5E0501E0246FFE7EEE748
:1009800008460025046865F3CB240460EAE00125ED
:100990000C6865F38A240C6001F210057C00A4B297
:1009A00044F00104A4B22C604646C8468946174666
:1009B0001D4623494846FFF701FC78B91E4C2468C0
:1009C0005CB1B8F1000F04D10320144C2468A04797
:1009D000C8E0A8F101008046FFE7EAE70021A84649
:1009E0004A46B1463B46A9F10304A1423DD2124C0E
:1009F00025688A4617461E4610493846FFF7DEFB33
:100A000038BB0D4C24681CB3FDB90320034C19E01E
:100A100000540040E4000020300100202C010020A0
:100A200000580040E800002034010020005C004035
:100A3000EC00002038010020F000002040000300FE
:100A4000020003002468A0478CE0681E0546FFE70B
:100A5000D2E706EB0A0507F2100424682C700AF1AD
:100A60000104214633463A46BDE7404C27680193CE
:100A70000B4616464246019906F214042568C5F352
:100A8000800464B9394C246844B127B90320384C38
:100A90002468A04766E0781E0746FFE7ECE70025DC
:100AA000346865F38A243460CD1806F21004246893
:100AB0002C70581C2D4C23681746024606F214046D
:100AC0002568C5F3800464B9284C246844B123B96F
:100AD0000320274C2468A04744E0581E0346FFE744
:100AE000ECE7012F07D10125346865F34924346010
:100AF0001046324621E00125346865F3082434604D
:100B00001A4CD4F8008017460D461A493046FFF7B4
:100B100055FB78B9154C24685CB1B8F1000F04D1CD
:100B20000320134C2468A0471CE0A8F10100804674
:100B3000FFE7EAE72946324638460D1802F210046C
:100B400024682C70441C0D1902F2100424682C70C7
:100B500008E0B8F1010F3FF402AEB8F1020F3FF424
:100B600084AE14E7DDF800E002B07047F00000202A
:100B70002C0100200100030083B0CDF800E0034603
:100B80004FF000002B498B4206D12B490C682B49B2
:100B90000A682B490A6015E02A498B4207D12A4985
:100BA00008682A490A6826490A6004460AE0284972
:100BB0008B4206D12749086827490A6820490A60FC
:100BC000FFE7044625490C60019402931846FFF79D
:100BD00007FB029B019C10B94FF6FF7025E0012234
:100BE000196862F30821196003F214010A68C2F35C
:100BF000402111B14FF6FF7017E025461C461849F9
:100C00002046FFF7DBFA78B91449096859B135B9BC
:100C100006200B4C2468A0474FF6FF7005E0691EC4
:100C200008460546FFE7EAE70020DDF800E003B0EC
:100C3000704700BF00540040E40000203001002055
:100C40002C01002000580040E80000203401002062
:100C5000005C0040EC00002038010020F000002083
:100C60000100030081B0CDF800E00348FFF7E6FC87
:100C7000DDF800E001B070470048004081B0CDF8D9
:100C800000E00348FFF76EFCDDF800E001B07047BC
:100C90000044004081B0CDF800E00348FFF77EFB40
:100CA000DDF800E001B070470044004081B0CDF8AD
:100CB00000E00348FFF772FBDDF800E001B0704789
:100CC0000048004081B0CDF800E00348FFF766FB24
:100CD000DDF800E001B07047004C004081B0CDF875
:100CE00000E00348FFF7AAFCDDF800E001B0704720
:100CF000004C004081B0CDF800E00348FFF732FC23
:100D0000DDF800E001B070470048004081B0CDF848
:100D100000E00348FFF792FCDDF800E001B0704707
:100D20000044004081B0ADF800100146BDF800005D
:100D30000B68C3F3C01202B9FAE70A1D106001B0D4
:100D40007047FFFF81B0CDF800E00348FFF714FFC4
:100D5000DDF800E001B07047005C004081B0CDF8E4
:100D600000E00348FFF7FEFBDDF800E001B070474C
:100D70000010014081B0CDF800E00348FFF7FCFE11
:100D8000DDF800E001B070470058004081B0CDF8B8
:100D900000E00348FFF7F0FEDDF800E001B0704727
:100DA0000054004081B0CDF800E00348FFF746FC56
:100DB000DDF800E001B070470010014081B0CDF8CF
:100DC00000E00348FFF7EAFADDF800E001B0704701
:100DD000001001408BB0CDF800E09AB2BDF82C3085
:100DE0000C9E06ACADF80430ADF8082003910490D9
:100DF0002046FFF7E1FB04980399BDF80820BDF8F1
:100E00000430714CA04212D101256DB26F4C2560A7
:100E10006F4D704C2560704D704C2560704D714C5D
:100E20002560714D714C2560099C05946CE0704CF7
:100E3000A04212D101256DB26E4C25606E4D654CFD
:100E400025606E4D654C25606D4D664C25606D4D81
:100E5000664C2560089C059456E06B4CA04212D16C
:100E600001256DB2694C2560694D5A4C2560694D6C
:100E70005A4C2560684D5B4C2560684D5B4C256085
:100E8000089C059440E0664CA04212D101256DB249
:100E9000644C2560644D4F4C2560644D4F4C25607B
:100EA000634D504C2560634D504C2560089C059463
:100EB0002AE0614CA04212D101256DB25F4C256041
:100EC0005F4D444C25605F4D444C25605E4D454C64
:100ED00025605E4D454C2560089C059414E05C4CF3
:100EE000A04211D101256DB25A4C25605A4D394CA2
:100EF00025605A4D394C2560594D3A4C2560594D65
:100F00003A4C2560099C0594ADF80430ADF80820F2
:100F1000039104903046FFF72BFB04980399BDF82A
:100F20000820BDF8043000F2100500242C6000F207
:100F300010052C681C432C6000F20C0500242C606A
:100F40001AB142F4806292B2FFE700F20C052C68FD
:100F500014432C6000F20C060125346865F34D340F
:100F6000346000F20C060125346865F3C304346074
:100F700000F20C060125346865F38204346000F247
:100F8000140500242C60059D192465438C00B5FBD5
:100F9000F4F76424B7FBF4F42601350964246C43A8
:100FA0003C1B240104F232056424B5FBF4F404F084
:100FB0000F0446EA040400F20805A4B22C60DDF830
:100FC00000E00BB0704700BF00100140900847429E
:100FD000E51600004C010020A50D00005001002086
:100FE000BD0D0000540100205D0D000058010020DF
:100FF0000044004044084742E91700000D0D00007E
:10100000950C00007D0C0000004800404808474255
:1010100005180000650C0000AD0C0000F50C000088
:10102000004C00404C084742CD170000DD0C00008A
:10103000C50C00007D1500000050004050084742DC
:101040007917000065150000B9150000291500008A
:1010500000140140940847429517000075140000E1
:101060008D140000C914000088B0CDF800E00E46D1
:101070005E4B98420DD1012464B25D4B1C605D4C07
:101080005D4B1C605D4C5E4B1C605E4C5E4B1C609F
:1010900020E05E4B98420DD1012464B25C4B1C6091
:1010A0005C4C554B1C605C4C554B1C605B4C564B70
:1010B0001C600FE05A4B98420CD1012464B2594B8A
:1010C0001C60594C4C4B1C60584C4D4B1C60584C90
:1010D0004D4B1C60019602901046FFF749FA0298AA
:1010E000019E031D1B689CB26FF03F0304EA0303DB
:1010F0009DB203AB01901846FFF75EFA0198059F79
:10110000059C4C4BB4FBF3F399B29BB245EA030444
:10111000A4B2031D1C600024036864F30003036091
:101120000022454B9E4212D87300B7FBF3F4A4B2E1
:10113000042C02D204231C46FFE742EA04039AB2BD
:1011400000F220044B1C9BB2236091B23FE00323CA
:1011500006FB03F4B7FBF4F31FFA83F8192306FB2D
:1011600003F5B7FBF5F31FFA83F908FB04F409FB59
:1011700005F33C1BFB1A9C4205D203237343B7FBC8
:10118000F3F4A4B206E019237343B7FBF3F4A4B25B
:1011900044F4804440F6FF7304EA030313B944F0B7
:1011A0000104FFE744F400439BB21A4392B200F2F9
:1011B000200540F22C1301FB03F4A4B240F2E83303
:1011C000B4FBF3F39BB25B1C9BB22B6091B200F2B9
:1011D0001C031960002303600124036864F3000307
:1011E0000360DDF800E008B0704700BF0054004025
:1011F000540847428D0D00003C010020D11500002D
:1012000040010020A51400004401002000580040C7
:1012100058084742750D000095150000051500009F
:10122000005C00405C084742450D0000411500008D
:10123000E114000040420F00A086010084B0CDF808
:1012400000E08DB21646864B00EA03031F4618469F
:10125000FFF700FAB5F1FF0F20D13C68814B04EA9B
:1012600003031846804B9E4214D145F2555340EA81
:1012700003033B603D1D2C686FF0FF0304EA03038A
:101280002B6007F208052C684FF6FF7344EA03034E
:101290002B60E1E0422E01D13860DDE0734B9D42CE
:1012A00013D1714B9E420BD14FF055333B603C1D27
:1012B0000023236007F208044FF0FF332360CBE0E4
:1012C000422E02D100233B60C6E006F001030BB1C1
:1012D00003200AE006F008030BB1022005E006F047
:1012E00004030BB1012000E00020614B06EA030378
:1012F0000BB103210AE006F480630BB1022105E083
:1013000006F400730BB1012100E0002106F0200378
:101310000BB1012200E0002206F480730BB102231E
:1013200005E006F080030BB1012300E0002340F24A
:10133000000A01921FFA85F9B046064618460A4689
:101340000199BAF1100F80F087804FF0010303FA82
:101350000AF409EA0403A34240F07B804FEA4A04FE
:101360004FF00303A340DC433B6823403B604FEA5C
:101370004A0306FA03F43B6823433B6008F00C037E
:101380003BB307F208054FEA4A044FF00303A340BA
:10139000DC432B6823402B6007F208054FEA4A0321
:1013A00002FA03F42B6823432B603D1D1FFA8AF4D5
:1013B0004FF00103A340DC432B6823402B603D1D0D
:1013C0001FFA8AF48BB203FA04F4A4B22B68234305
:1013D0002B6007F20C051FFA8AF35C00A4B24FF0F1
:1013E0000303A340DC432B6823402B6007F20C056A
:1013F0004FEA4A0300FA03F42B6823432B6008F0FA
:10140000080333B308F470031B0D8DF80C30BAF1E8
:10141000070F05D907F224030293AAF1080503E098
:1014200007F2200302935546AC004FF00F03A34090
:10143000DC43029B1B6803EA0404029B1C609DF8CA
:101440000C40AB009C40029B1B6843EA0404029BD7
:101450001C600AF1010A74E7DDF800E004B070478F
:1014600000FCFFFF0000FFFF14000800FFFF00006A
:101470000008080081B0CDF800E00348FFF7DEF86F
:10148000DDF800E001B070470014014081B0CDF8F4
:1014900000E00348FEF782FFDDF800E001B070478E
:1014A0000014014081B0CDF800E008B413460A46AC
:1014B000C1B20448FEF778FF01B0DDF800E001B0EA
:1014C000704700BF0054004081B0CDF800E00348F1
:1014D000FFF748F8DDF800E001B070470014014064
:1014E00081B0CDF800E008B413460A46C1B2044802
:1014F000FEF75AFF01B0DDF800E001B0704700BF11
:10150000005C004081B0CDF800E008B413460A4604
:10151000C1B20448FEF748FF01B0DDF800E001B0B9
:10152000704700BF0058004081B0CDF800E003488C
:10153000FFF718F8DDF800E001B0704700500040F8
:1015400081B0CDF800E008B413460A46C1B20448A1
:10155000FFF7D4F801B0DDF800E001B0704700BF3C
:10156000005C004081B0CDF800E00348FFF766F86A
:10157000DDF800E001B070470050004081B0CDF8C8
:1015800000E00348FEF7EEFFDDF800E001B0704731
:10159000004C004081B0CDF800E008B413460A4684
:1015A000C1B20448FFF7AAF801B0DDF800E001B0CD
:1015B000704700BF0058004081B0CDF800E00348FC
:1015C000FEF7ECFEDDF800E001B07047005000408F
:1015D00081B0CDF800E008B413460A46C1B2044811
:1015E000FFF78CF801B0DDF800E001B0704700BFF4
:1015F0000054004082B0CDF800E040F20004ADF8A5
:101600000440064C2468A047BDF9041041EA0000DC
:1016100000B2DDF800E002B0704700BF0801002012
:1016200082B0CDF800E040F20004ADF80440054C73
:101630002468A047BDF90440044320B2DDF800E06F
:1016400002B070470C01002082B0CDF800E040F2FB
:101650000004ADF80440044C2468A047BDF9040020
:10166000DDF800E002B070471001002081B0CDF835
:1016700000E04FF0420289B2FFF7E0FDDDF800E044
:1016800001B0704781B0CDF800E0044A89B2FFF79D
:10169000D5FDDDF800E001B0704700BF1400080080
:1016A00081B0CDF800E0019D2C4610B408B493B28F
:1016B0008AB201460348FFF78DFB02B0DDF800E077
:1016C00001B070470014014081B0CDF800E00A4637
:1016D00001460348FFF7C8FCDDF800E001B07047A1
:1016E0000058004081B0CDF800E081B20348FFF718
:1016F00019FBDDF800E001B0704700BF00100140A9
:1017000081B0CDF800E0019D2C4610B408B493B22E
:101710008AB201460348FFF75DFB02B0DDF800E046
:1017200001B070470010014081B0CDF800E0019D8C
:101730002C4610B408B493B28AB201460348FFF7AE
:1017400049FB02B0DDF800E001B070470044004002
:1017500081B0CDF800E0019D2C4610B408B493B2DE
:101760008AB201460348FFF735FB02B0DDF800E01E
:1017700001B070470048004081B0CDF800E081B270
:101780000348FFF7CFFADDF800E001B0704700BF73
:101790000050004081B0CDF800E081B20348FFF76F
:1017A000C1FADDF800E001B0704700BF001401404D
:1017B00081B0CDF800E00A4601460348FFF754FC2B
:1017C000DDF800E001B070470054004081B0CDF872
:1017D00000E081B20348FFF7A5FADDF800E001B0B0
:1017E000704700BF004C004081B0CDF800E081B2EE
:1017F0000348FFF797FADDF800E001B0704700BF3B
:101800000044004081B0CDF800E081B20348FFF70A
:1018100089FADDF800E001B0704700BF00480040E1
:1018200081B00249086001B0704700BF8082424227
:1018300081B00249086001B0704700BF8482424213
:1018400081B00249086001B0704700BF9802414270
:1018500081B00249086001B0704700BF9C824142DC
:1018600081B00249086001B0704700BFBC0242422B
:1018700081B00249086001B0704700BF84824042D5
:1018800081B00249086001B0704700BFB002414218
:1018900081B00249086001B0704700BFAC0241420C
:1018A00081B00249086001B0704700BFA802414200
:1018B00081B00249086001B0704700BF9C024142FC
:1018C00081B00249086001B0704700BF8C8242427B
:1018D00081B00249086001B0704700BFBC8241423C
:1018E00081B00249086001B0704700BFA8024142C0
:1018F00081B0026806490A60011D0A6805490A604C
:1019000000F208010A6804490A6001B0704700BF8C
:10191000080100200C0100201001002081B00249C4
:10192000086001B0704700BF8082424281B0024926
:10193000086001B0704700BF8482424283B0CDF896
:1019400000E08DF80800FFF755FE02AA0B49097860
:101950000023C8B211460122FFF762FE01AA07491F
:1019600009780123C8B211460122FFF76DFE9DF8E8
:101970000400DDF800E003B0704700BFE200002083
:1019800082B0CDF800E001AA1070521C1170FFF770
:1019900031FE01AB054A127819460123D0B202226A
:1019A000FFF73EFEDDF800E002B07047E2000020E5
:1019B00081B000F230031A680B490A6003F21C017F
:1019C0000A680A490A6000F208010A6808490A60C0
:1019D000011D0A6807490A6000F218010A680649F1
:1019E0000A6001B0704700BF1401002018010020F8
:1019F0001C010020200100202401002081B00249A8
:101A0000086001B0704700BF8082404281B0024947
:101A1000086001B0704700BFB002414281B0024986
:101A2000086001B0704700BFAC02414281B002497A
:101A3000086001B0704700BF9802414281B002497E
:101A4000086001B0704700BF9C02414281B002496A
:101A5000086001B0704700BFA802424281B002494D
:101A6000086001B0704700BFB402414281B0024932
:101A7000086001B0704700BFAC02424281B0024929
:101A8000086001B0704700BF9002404281B0024937
:101A9000086001B0704700BF9402404281B0024923
:101AA000086001B0704700BF8C02404281B0CDF8A1
:101AB00000E0094902B440F2000340F2000240F2A3
:101AC0000001FFF7EDFD01B0044A05490A6000205E
:101AD000DDF800E001B070470838000095170000FD
:101AE0000401002081B0CDF800E0094902B440F2C1
:101AF000000340F2000240F20001FFF7D1FD01B007
:101B0000044A05490A600020DDF800E001B0704792
:101B100008380000951700000401002081B0CDF8BE
:101B200000E00178CCB2A0B2034C2468A0470020AA
:101B3000DDF800E001B070470401002081B00249E7
:101B4000086001B0704700BF9C82404281B00249EA
:101B5000086001B0704700BF9882404281B00249DE
:101B6000086001B0704700BFA082404281B00249C6
:101B7000086001B0704700BF8C82414281B00249C9
:101B8000086001B0704700BF9802404281B002492E
:101B9000086001B0704700BF9482404281B00249A2
:101BA000086001B0704700BFB082414281B0CDF8FB
:101BB00000E0A9E0012905D140F202016548FFF7E4
:101BC00055FD04E040F202016248FFF75BFDBBE017
:101BD000012905D148F200015F48FFF747FD04E005
:101BE00048F200015C48FFF74DFDADE0012905D149
:101BF00040F280015948FFF739FD04E040F28001CE
:101C00005648FFF73FFD9FE0012905D140F2004112
:101C10005348FFF72BFD04E040F200415048FFF726
:101C200031FD91E0012905D140F600014C48FFF754
:101C30001DFD04E040F600014948FFF723FD83E065
:101C4000012905D141F200014548FFF70FFD04E0ED
:101C500041F200014248FFF715FD75E0012905D169
:101C600040F201013B48FFF701FD04E040F20101B1
:101C70003848FFF707FD67E0012905D140F2004130
:101C80003548FFF7F3FC04E040F200413248FFF72B
:101C9000F9FC59E0012905D140F280013048FFF7F5
:101CA000E5FC04E040F280012D48FFF7EBFC4BE03F
:101CB000012905D140F240012948FFF7D7FC04E093
:101CC00040F240012648FFF7DDFC3DE0012905D147
:101CD00040F202012348FFF7C9FC04E040F2020190
:101CE0002048FFF7CFFC2FE0012905D140F2010188
:101CF0001C48FFF7BBFC04E040F201011948FFF764
:101D0000C1FC21E0012020E000283FF453AF01286E
:101D10003FF45EAF02283FF469AF03283FF474AF8D
:101D200004283FF47FAF05283FF48AAF06283FF42C
:101D300095AF0728A0D00828ACD00928B8D00A2829
:101D4000C4D00B28D0D0DDE70020DDF800E001B0E2
:101D5000704700BF0004024000100240000C024027
:101D6000000802400014024081B0CDF800E0016894
:101D700008460449FFF71CFD0020DDF800E001B033
:101D8000704700BF9C37000081B0CDF800E00168CB
:101D900008460449FFF70CFD0020DDF800E001B023
:101DA000704700BF9C37000081B0CDF800E0A9E08B
:101DB000012905D140F208016548FFF757FC04E00E
:101DC00040F208016248FFF75DFCBBE0012905D144
:101DD00044F200015F48FFF749FC04E044F20001CF
:101DE0005C48FFF74FFCADE0012905D142F200014C
:101DF0005748FFF73BFC04E042F200015448FFF76C
:101E000041FC9FE0012905D140F200415048FFF715
:101E10002DFC04E040F200414D48FFF733FC91E017
:101E2000012905D140F600014948FFF71FFC04E0F5
:101E300040F600014648FFF725FC83E0012905D163
:101E400041F200014248FFF711FC04E041F20001B9
:101E50003F48FFF717FC75E0012905D148F2000162
:101E60003D48FFF703FC04E048F200013A48FFF761
:101E700009FC67E0012905D140F208013748FFF766
:101E8000F5FB04E040F208013448FFF7FBFB59E0A2
:101E9000012905D140F280012D48FFF7E7FB04E05E
:101EA00040F280012A48FFF7EDFB4BE0012905D104
:101EB00040F240012648FFF7D9FB04E040F2400120
:101EC0002348FFF7DFFB3DE0012905D140F2020185
:101ED0002248FFF7CBFB04E040F202011F48FFF766
:101EE000D1FB2FE0012905D140F201011B48FFF78A
:101EF000BDFB04E040F201011848FFF7C3FB21E0FD
:101F0000012020E000283FF453AF01283FF45EAFEA
:101F100002283FF469AF03283FF474AF04283FF46C
:101F20007FAF05283FF48AAF06283FF495AF072816
:101F3000A0D00828ACD00928B8D00A28C4D00B28D3
:101F4000D0D0DDE70020DDF800E001B0704700BF31
:101F50000008024000100240000C02400014024041
:101F600081B0CDF800E0A9E0012905D140F20801D7
:101F70006548FFF77BFB04E040F208016248FFF789
:101F800081FBBBE0012905D140F600015F48FFF766
:101F90006DFB04E040F600015C48FFF773FBADE029
:101FA000012905D140F210015748FFF75FFB04E01B
:101FB00040F210015448FFF765FB9FE0012905D16D
:101FC00040F220015048FFF751FB04E040F22001AD
:101FD0004D48FFF757FB91E0012905D140F2400140
:101FE0004948FFF743FB04E040F240014648FFF751
:101FF00049FB83E0012905D140F220014448FFF765
:1020000035FB04E040F220014148FFF73BFB75E05F
:10201000012905D141F200013E48FFF727FB04E00A
:1020200041F200013B48FFF72DFB67E0012905D194
:1020300040F208013748FFF719FB04E040F20801BD
:102040003448FFF71FFB59E0012905D140F2800118
:102050002F48FFF70BFB04E040F280012C48FFF70C
:1020600011FB4BE0012905D140F240012848FFF760
:10207000FDFA04E040F240012548FFF703FB3DE094
:10208000012905D140F200112148FFF7EFFA04E0E1
:1020900040F200111E48FFF7F5FA2FE0012905D1A3
:1020A00040F200211A48FFF7E1FA04E040F2002173
:1020B0001748FFF7E7FA21E0012020E000283FF46D
:1020C00053AF01283FF45EAF02283FF469AF032805
:1020D0003FF474AF04283FF47FAF05283FF48AAF84
:1020E00006283FF495AF0728A0D00828ACD00928CF
:1020F000B8D00A28C4D00B28D0D0DDE70020DDF806
:1021000000E001B0704700BF000002400010024034
:1021100000040240000C024081B0CDF800E0A9E0CC
:10212000012905D140F201016548FFF79FFA04E05B
:1021300040F201016248FFF7A5FABBE0012905D191
:1021400041F200015F48FFF791FA04E041F200011B
:102150005C48FFF797FAADE0012905D140F2040190
:102160005948FFF783FA04E040F204015648FFF7AC
:1021700089FA9FE0012905D140F220015348FFF779
:1021800075FA04E040F220015048FFF77BFA91E035
:10219000012905D140F240014C48FFF767FA04E0FD
:1021A00040F240014948FFF76DFA83E0012905D16B
:1021B00040F220014448FFF759FA04E040F22001C0
:1021C0004148FFF75FFA75E0012905D142F20001AD
:1021D0003F48FFF74BFA04E042F200013C48FFF7AA
:1021E00051FA67E0012905D140F210013848FFF7A4
:1021F0003DFA04E040F210013548FFF743FA59E098
:10220000012905D140F240013148FFF72FFA04E0DF
:1022100040F240012E48FFF735FA4BE0012905D185
:1022200040F220012A48FFF721FA04E040F22001A1
:102230002748FFF727FA3DE0012905D140F20011B8
:102240002148FFF713FA04E040F200111E48FFF79F
:1022500019FA2FE0012905D140F200211A48FFF7B1
:1022600005FA04E040F200211748FFF70BFA21E0DD
:10227000012020E000283FF453AF01283FF45EAF77
:1022800002283FF469AF03283FF474AF04283FF4F9
:102290007FAF05283FF48AAF06283FF495AF0728A3
:1022A000A0D00828ACD00928B8D00A28C4D00B2860
:1022B000D0D0DDE70020DDF800E001B0704700BFBE
:1022C00000080240001002400004024000000240EA
:1022D000000C024081B0CDF800E0A9E0012905D151
:1022E00040F204016548FFF7C1F904E040F204013F
:1022F0006248FFF7C7F9BBE0012905D142F20001AE
:102300005F48FFF7B3F904E042F200015C48FFF7D1
:10231000B9F9ADE0012905D140F210015948FFF7A4
:10232000A5F904E040F210015648FFF7ABF99FE031
:10233000012905D140F220015348FFF797F904E045
:1023400040F220015048FFF79DF991E0012905D1A5
:1023500040F240014C48FFF789F904E040F24001A7
:102360004948FFF78FF983E0012905D140F22001A8
:102370004448FFF77BF904E040F220014148FFF7B1
:1023800081F975E0012905D144F200013F48FFF7CA
:102390006DF904E044F200013C48FFF773F967E08F
:1023A000012905D140F204013848FFF75FF904E044
:1023B00040F204013548FFF765F959E0012905D1DC
:1023C00040F200213148FFF751F904E040F20021CA
:1023D0002E48FFF757F94BE0012905D140F20011D3
:1023E0002A48FFF743F904E040F200112748FFF7BD
:1023F00049F93DE0012905D140F200112148FFF7DC
:1024000035F904E040F200111E48FFF73BF92FE0D8
:10241000012905D140F200211A48FFF727F904E00D
:1024200040F200211748FFF72DF921E0012020E0BC
:1024300000283FF453AF01283FF45EAF02283FF479
:1024400069AF03283FF474AF04283FF47FAF052839
:102450003FF48AAF06283FF495AF0728A0D008289C
:10246000ACD00928B8D00A28C4D00B28D0D0DDE7DA
:102470000020DDF800E001B0704700BF0008024016
:10248000001002400004024000000240000C024024
:1024900081B0CDF800E0094902B440F2000340F2F7
:1024A000000240F20001FFF73FF901B0044A05497C
:1024B0000A600020DDF800E001B07047303700000E
:1024C000E91700000401002081B0CDF800E00949BF
:1024D00002B440F2000340F2000240F20001FFF7B4
:1024E00037F901B0044A05490A600020DDF800E030
:1024F00001B0704774380000051800000401002086
:1025000081B0CDF800E0094902B440F2000340F286
:10251000000240F20001FFF7C3F801B0044A054988
:102520000A600020DDF800E001B0704708380000C4
:10253000951700000401002081B0CDF800E00949A2
:1025400002B440F2000340F2000240F20001FFF743
:10255000D7F801B0044A05490A600020DDF800E020
:1025600001B07047C4360000E516000004010020E9
:1025700081B0CDF800E0016808460449FFF718F97A
:102580000020DDF800E001B0704700BF9C3700007C
:1025900081B0CDF800E0016808460449FFF794F8DF
:1025A0000020DDF800E001B0704700BF58360000A1
:1025B00081B0CDF800E0016808460449FFF784F8CF
:1025C0000020DDF800E001B0704700BF5836000081
:1025D00081B00249086001B0704700BF94024042D8
:1025E00081B00249086001B0704700BF98024042C4
:1025F00081B00249086001B0704700BF9482404238
:1026000081B00249086001B0704700BF908240422B
:1026100081B00249086001B0704700BFA482404207
:1026200081B00249086001B0704700BF8802414292
:1026300081B00249086001B0704700BFB402424255
:1026400081B00249086001B0704700BFB8824142C2
:1026500081B00249086001B0704700BFA4824042C7
:1026600081B00249086001B0704700BF8C0241424E
:1026700081B00249086001B0704700BFB802424211
:1026800081B00249086001B0704700BFA08240429B
:1026900081B00249086001B0704700BF88824142A2
:1026A00081B00249086001B0704700BFA482414276
:1026B00081B00249086001B0704700BFA08241426A
:1026C00081B00249086001B0704700BFA08240425B
:1026D00081B00249086001B0704700BF94024042D7
:1026E00081B00249086001B0704700BF98024042C3
:1026F00081B00249086001B0704700BF9482404237
:1027000081B00249086001B0704700BF8882404232
:1027100081B00249086001B0704700BFA482404206
:1027200081B00249086001B0704700BF8002414299
:1027300081B00249086001B0704700BFB002424258
:1027400081B00249086001B0704700BFB4824142C5
:1027500081B00249086001B0704700BF98824142D1
:1027600081B00249086001B0704700BF94824142C5
:1027700081B00249086001B0704700BF90824142B9
:1027800082B0CDF800E082B240F6FF718A4201D9F2
:10279000FF201FE0ADF804200720FFF7CFF8BDF8B9
:1027A000042002F0FF04110AC9B20B0100F00F026D
:1027B000D2B2D9B242EA0101C8B28DF80400E1B246
:1027C0000620FFF7DDF89DF80400C1B20720FFF7EF
:1027D000D7F80020DDF800E002B0704781B0CDF8F6
:1027E00000E0F0EE400A164900EE101AB4EEE00ADE
:1027F000F1EE10FA08DB134900EE101AB4EEE00A0D
:10280000F1EE10FA00DC01E0FF2015E00C4900EECB
:10281000101A80EE800AF0EE400A4FF0874100EE79
:10282000101A20EE800ABCEE400A10EE101AC9B24F
:102830000520FFF7A5F80020DDF800E001B07047A3
:102840000000C842CDCC484282B0CDF800E0C1B211
:102850008DF804100E20FFF771F89DF804100FE0BA
:1028600000F0BF010E20FFF78BF800200DE040F0D4
:1028700040010E20FFF784F8002006E0FF2004E06E
:10288000DD29EDD0EE29F2D0F8E7DDF800E002B066
:102890007047FFFFA086010081B0CDF800E0CC209A
:1028A00000F0FCF947F6FE57C0F2563700BF00BFF4
:1028B0007F1EFDD100BF00BF00BF0448007800F0BC
:1028C000EDF9DDF800E001B0704700BF180000200E
:1028D00082B0CDF800E0F0EE400A1B4900EE101A7D
:1028E000B4EEE00AF1EE10FA05DBF5EEC00AF1EE07
:1028F00010FA00DB01E0FF2021E0144900EE101A7D
:1029000080EE800AF0EE400ACDED010A0220FFF7CA
:1029100015F8DDED010A00F08002D2B24FF08741D8
:1029200000EE101A20EE800ABCEE400A10EE101ADB
:10293000C9B242EA01010220FFF722F80020DDF8C7
:1029400000E002B0704700BF666646420000C84221
:1029500081B0CDF800E0F0EE400A164900EE101A02
:10296000B4EEE00AF1EE10FA08DB134900EE101A9B
:10297000B4EEE00AF1EE10FA00DC01E0FF2015E011
:102980000E4900EE101A80EE800AF0EE400A4FF079
:10299000874100EE101A20EE800ABCEE400A10EECD
:1029A000101AC9B20420FEF7EBFF0020DDF800E0AA
:1029B00001B070473333C742CDCCCC3E0000C84293
:1029C00082B0CDF800E0C2B23AB1022A05D0042AA2
:1029D00003D0062A01D0002100E0012109B9FF201F
:1029E0000EE08DF804200E20FEF7A8FF9DF80420CD
:1029F00000F0F901C9B211430E20FEF7C1FF00201B
:102A0000DDF800E002B0704781B0CDF800E0F0EEF4
:102A1000400A154900EE101AB4EEE00AF1EE10FA81
:102A200005DBF5EEC00AF1EE10FA00DB01E0FF2055
:102A300015E00E4900EE101A80EE800AF0EE400A12
:102A40004FF0884100EE101A20EE800ABCEE400ADA
:102A500010EE101AC9B20320FEF792FF0020DDF835
:102A600000E001B0704700BF333347420000C84266
:102A700081B0CDF800E015E00846FFF775F91CE0DD
:102A80000846FFF781F918E00846FFF771FD14E0EA
:102A90000846FFF77DFD10E00846FFF789FD0CE0D2
:102AA00001200AE00028E7D00128E9D00228EBD075
:102AB0000328EDD00428EFD0F2E7DDF800E001B004
:102AC0007047FFFF81B0CDF800E000210020FEF745
:102AD00057FF00210120FEF753FF0F210220FEF7D0
:102AE0004FFF33210320FEF74BFF00210420FEF7A8
:102AF00047FFCC210520FEF743FF33210620FEF7D8
:102B00003FFF08210720FEF73BFF12210820FEF7B8
:102B100037FF00210920FEF733FF00210A20FEF7CE
:102B20002FFF00210B20FEF72BFF7F210C20FEF74B
:102B300027FF7F210D20FEF723FF37210E20FEF710
:102B40001FFF11210F20FEF71BFF10211020FEF7A1
:102B500017FFC3211120FEF713FF01211220FEF7FA
:102B60000FFF02211320FEF70BFFA2211420FEF716
:102B700007FF0C211520FEF703FF82211620FEF728
:102B8000FFFE3F211720FEF7FBFE40211820FEF735
:102B9000F7FEDDF800E001B07047FFFF81B0CDF82F
:102BA00000E019E00846FFF7C7FC22E00846FFF7FF
:102BB0006FFC1EE00846FFF787FC1AE00846FFF7A7
:102BC0009FFC16E00846FEF771FF12E00846FEF78C
:102BD00089FF0EE001200CE00028E3D00128E5D0B9
:102BE0000228E7D00328E9D00428EBD01028EDD044
:102BF000F0E7DDF800E001B07047FFFF83B0CDF8EB
:102C000000E0024610460D228DF808200A228DF8B9
:102C100009201FE0FEF782FF23E002782AB101902D
:102C2000FEF77CFF0198401CF7E71AE002782AB112
:102C30000190FEF773FF0198401CF7E702AA1046C7
:102C4000FEF76CFF0DF109021046FEF767FF08E082
:102C5000062007E00029DDD00129DED00229E5D0D9
:102C6000F6E70020DDF800E003B0704781B0CDF852
:102C700000E00446074B1A700846FEF739FE20466E
:102C8000FEF796FE0120044C2468A047DDF800E022
:102C900001B07047E20000201C01002082B0CDF896
:102CA00000E075E00220FEF749FE8DF804000920DF
:102CB000FEF744FE8DF805000B20FEF73FFE9DF861
:102CC000041041F080029DF8051001F0FC018DF820
:102CD000051000F0FE018DF80610D1B20220FEF7BB
:102CE0004FFE9DF805100920FEF74AFE9DF80610DC
:102CF0000B20FEF745FE002051E00220FEF71EFEED
:102D00008DF804000920FEF719FE8DF805000B2050
:102D1000FEF714FE9DF8041041F080029DF80510A6
:102D200001F0FC01C9B241F001018DF8051040F03D
:102D300001018DF80610D1B20220FEF721FE9DF8A8
:102D400005100920FEF71CFE9DF806100B20FEF76B
:102D500017FE002023E00220FEF7F0FD8DF80400AE
:102D60000920FEF7EBFD9DF8041001F07F0200F052
:102D7000FC018DF80510D1B20220FEF701FE9DF88E
:102D800005100920FEF7FCFD002008E0FF2006E00A
:102D9000AA2887D0BB28B0D0CC28DCD0F6E7DDF855
:102DA00000E002B07047FFFF81B0CDF800E05FFAAD
:102DB00081FB5FFA82FC24E05FFA8CF15FFA8BF012
:102DC000FFF7CEF828E05FFA8CF15FFA8BF0FFF79F
:102DD000A3F921E05FFA8CF15FFA8BF0FFF77AFA42
:102DE0001AE05FFA8CF15FFA8BF0FEF7DDFF13E07B
:102DF0005FFA8CF15FFA8BF0FEF7D8FE0CE0012051
:102E00000AE00028D8D00128DDD00228E2D003282B
:102E1000E7D00428ECD0F2E7DDF800E001B070471D
:102E200081B0CDF800E045480078BB2840D1444847
:102E30000221FFF7E3FEFFF72FFDB3EE040AFFF7D1
:102E400087FD4DF2FE77C4F2C1277F1EFDD100BF82
:102E500000BF00BF00BF00BF3A480221FFF7CEFE0F
:102E6000FFF71AFD384800EE100AFFF771FD4DF22A
:102E7000FE77C4F2C12700BF00BF7F1EFDD100BF97
:102E800000BF00BF31480221FFF7B8FEFFF704FD85
:102E9000B2EE000AFFF75CFD4DF2FE77C4F2C127E7
:102EA0007F1EFDD100BF00BF00BF00BF00BF41E0DB
:102EB00022480078AA283DD125480221FFF79EFE2E
:102EC000FFF7EAFC40F29010FFF75AFC4DF2FE7754
:102ED000C4F2C12700BF00BF7F1EFDD100BF00BFED
:102EE00000BF1C480221FFF789FEFFF7D5FC40F226
:102EF000E830FFF745FC4DF2FE77C4F2C12700BF72
:102F000000BF7F1EFDD100BF00BF00BF12480221DD
:102F1000FFF774FEFFF7C0FC6420FFF731FC4DF2B1
:102F2000FE77C4F2C12700BF00BF7F1EFDD100BFE6
:102F300000BF00BFDDF800E001B0704718000020BE
:102F4000790000208A000020000020429B00002021
:102F5000AB000020BD000020D0000020FFFFFFFFDD
:102F600082B0CDF800E000208DF804003D48022139
:102F7000FFF744FE3C480221FFF740FE32223B4966
:102F80003B48FFF773FE47F2FE27C0F2550700BF2C
:102F900000BF7F1EFDD100BF00BF00BFFFF792FD45
:102FA000BB21344801700078FFF778FEDD20FFF781
:102FB0004BFC30480078BB2827D12F4800EE100A80
:102FC000FFF70CFC9DF8041041EA00008DF80400A6
:102FD000B1EE040AFFF718FD9DF8041041EA000065
:102FE0008DF80400B0EE000AFFF772FC9DF80410A3
:102FF00041EA00008DF80400B3EE040AFFF7A8FCD4
:103000001E480221FFF7FAFD1AE01A480078AA28A4
:1030100016D10020FFF7D4FC9DF8041041EA00000F
:103020008DF8040040F29010FFF7AAFB9DF8041001
:1030300041EA00008DF8040011480221FFF7DEFD8F
:103040009DF80400FF2804D10E480221FFF7D6FDA9
:10305000FEE70D480221FFF7D1FDDDF800E002B0E8
:10306000704700BF00000020010000206039000010
:10307000E0380000180000200000BE4219000020C7
:10308000340000204E0000206200002081B00D4876
:10309000006840F001010B48016000210A4801600E
:1030A0000848016809480140064801600849094884
:1030B0000160044801686FF480200140014801600C
:1030C00001B070470038024008380240FFFFF6FEAA
:1030D000103000240438024081B0CDF800E0012215
:1030E00007210020FFF760FE012200210020FFF7EA
:1030F0005BFE002201210020FFF756FE0022022184
:103100000020FFF751FE002206210020FFF74CFEB1
:103110000C4801460020FFF7ABFC42F28051102022
:10312000FFF73CFD47F2FE27C0F2550700BF00BF86
:103130007F1EFDD100BF00BF00BFDDF800E001B081
:10314000704700BF9428000081B01CF8019B0BF869
:10315000019BBBEB0A0FF8D101B0704781B04FF073
:1031600000094FF0000CBDEB0A0F04DCBDEB0B0FA8
:1031700001DBD446EA464BF8049BBBEB0A0FFAD1BD
:10318000BCEB0A0F05DDE246D9F800B00BF1040BE9
:10319000F1E701B07047FFFF81B0FEE701B0704773
:1031A00081B04EF68850CEF20000016841F4700103
:1031B000016000BF00BF00BF00BFF1EE100A40F485
:1031C0004000E1EE100A01B07047FFFF81B00449F2
:1031D0000448016004490548016001B0704700BF20
:1031E0004090020028010020030000004801002058
:1031F00082B0CDF800E0924A924B934C93489449A8
:10320000032840F03C809348814206D992480068E8
:1032100040F005019048016030E09048814206D9B5
:103220008D48006840F004018B48016026E08C481E
:10323000814206D98848006840F003018648016051
:103240001CE04EF66020814206D98348006840F0B9
:1032500002018148016011E047F23050814206D9F5
:103260007D48006840F001017B48016006E07A4833
:1032700001686FF007000140774801600CE1022807
:1032800040F046807748814206D97348006840F094
:103290000601714801603AE07048814206D96E48E3
:1032A000006840F005016C48016030E06E488142E2
:1032B00006D96948006840F004016748016026E0CB
:1032C0006A48814206D96448006840F003016248B8
:1032D00001601CE04BF68030814206D95E480068F0
:1032E00040F002015C48016011E045F6C0508142A7
:1032F00006D95948006840F001015748016006E0CE
:10330000554801686FF00700014053480160C3E071
:10331000012840F051805148814206D94E4800684A
:1033200040F007014C48016045E05148814206D910
:103330004948006840F00601474801603BE04848C2
:10334000814206D94448006840F0050142480160C6
:1033500031E04648814206D93F48006840F0040108
:103360003D48016027E04DF2F020814206D93A48FD
:10337000006840F00301384801601CE048F6A040B6
:10338000814206D93448006840F0020132480160A9
:1033900011E044F25060814206D92F48006840F0A5
:1033A00001012D48016006E02B4801686FF007001D
:1033B0000140294801606FE0002840F06D802D48F1
:1033C000814206D92448006840F007012248016084
:1033D00062E02548814206D91F48006840F0060196
:1033E0001D48016058E02448814206D91A48006807
:1033F00040F00501184801604EE0B1F57A4F06D95A
:103400001548006840F004011348016044E04BF6A1
:103410008030814206D91048006840F003010E4810
:10342000016039E0B1F5FA4F06D90B48006840F069
:103430000201094801602FE0B1F57A5F25D91DE04E
:103440008000010119544004029460000300000050
:1034500040900200F0490200003C0240C0D401004C
:10346000905F0100803202000077010040190100E6
:10347000E0A5010080B50100803801002D480068FA
:1034800040F001012B48016006E02A4801686FF016
:103490000700014027480160012149B22648016028
:1034A00026480160FFF7F2FD2548036025480460C7
:1034B000254802EA00012548016002F0010040B100
:1034C00021462248006800F00200002800D1F8E7F9
:1034D00000E0214602F4803048B11C48006800F446
:1034E000003000B9F9E701920A46019902E0019122
:1034F0001146019A01F0807070B11448006840F0E4
:1035000080711248016011461048006800F0007098
:1035100000B9F9E70A46FFE70A48006800F00C0125
:10352000900000F00C00814200D0F5E7DDF800E0EB
:1035300002B07047003C024020804742248047424E
:103540000438024008380240FFFF0F0000380240F4
:1035500081B0FFF74DFEFFF723FE00F055FAFFF7AD
:1035600035FE00F003FAFFF7B7FDFFF7F9FCFFF7B0
:1035700057FCFCE7FEE700202A2A2A2A2A2041508D
:103580005020494E4954202A2A2A2A2A2000002065
:103590002D2D2D2D2D204455545920434F4E54523E
:1035A0004F4C202D2D2D2D2D2000202D2D2D2D2D5E
:1035B0002052504D20434F4E54524F4C202D2D2D14
:1035C0002D2D2000202D2D2D2D2D204552524F52D6
:1035D000202D2D2D2D2D2000202A2A2A2A2A204177
:1035E0005050205441534B202A2A2A2A2A200020B6
:1035F0002D2D2D2D2D203230202D2D2D2D2D200047
:10360000202D2D2D2D2D203430202D2D2D2D2D2014
:1036100000202D2D2D2D2D2038202D2D2D2D2D2030
:1036200000202D2D2D2D2D20343030202D2D2D2D11
:103630002D2000202D2D2D2D2D2031303030202D0E
:103640002D2D2D2D2000202D2D2D2D2D20313030F4
:10365000202D2D2D2D2D20005104000050040000A0
:10366000FFFFFFFF0000000000000000000000005E
:10367000000000000000000000000000000000004A
:10368000000000000000000000000000280800000A
:1036900028080000000000000000000000000000FA
:1036A000000000000000000000000000000000001A
:1036B000000000000000000000000000000000000A
:1036C000000000001607000017070000FFFFFFFFC3
:1036D00000000000000000000000000000000000EA
:1036E00000000000000000000000000000000000DA
:1036F000000000000000000018080000180800008A
:1037000000000000000000000000000000000000B9
:1037100000000000000000000000000000000000A9
:103720000000000000000000000000000000000099
:103730003507000036070000FFFFFFFF0000000014
:103740000000000000000000000000000000000079
:103750000000000000000000000000000000000069
:103760000000000018080000180800000000000019
:103770000000000000000000000000000000000049
:103780000000000000000000000000000000000039
:10379000000000000000000000000000180400000D
:1037A00019040000FFFFFFFF000000000000000000
:1037B0000000000000000000000000000000000009
:1037C00000000000000000000000000000000000F9
:1037D0002808000028080000000000000000000089
:1037E00000000000000000000000000000000000D9
:1037F00000000000000000000000000000000000C9
:10380000000000000000000026080000270800005B
:10381000FFFFFFFF000000000000000000000000AC
:103820000000000000000000000000000000000098
:103830000000000000000000000000001808000068
:103840001808000000000000000000000000000058
:103850000000000000000000000000000000000068
:103860000000000000000000000000000000000058
:10387000000000003807000039070000FFFFFFFFCD
:103880000000000000000000000000000000000038
:103890000000000000000000000000000000000028
:1038A00000000000000000001808000018080000D8
:1038B0000000000000000000000000000000000008
:1038C00000000000000000000000000000000000F8
:1038D00000000000000000000000000000000000E8
:1038E0009D1A00006D1A00007D1A00008D1A00005C
:1038F0007D1B00008D1B00009D1B00006D1B000048
:103900003D1B00004D1B00005D1B00001127000047
:10391000FFFFFFFFFFFFFFFFFFFFFFFFFFFFFFFFB7
:10392000FFFFFFFFFFFFFFFFFFFFFFFFFFFFFFFFA7
:10393000FFFFFFFFFFFFFFFFFFFFFFFFFFFFFFFF97
:103940000000000000000000000000000000000077
:103950000000000001020304010203040607080935
:103960008D0D0000A5140000D115000000B5DFF892
:1039700024B0DFF824A0DFF824C0FFF7E5FBDFF870
:1039800020B0DFF820A0DFF820C0FFF7DDFB00BD8E
:10399000704700BF00000020E200002076350000E4
:1039A000E40000200401002040390000FFFFFFFF79
:1039B000FFFFFFFFFFFFFFFFFFFFFFFFFFFFFFFF17
:1039C000FFFFFFFFFFFFFFFFFFFFFFFFFFFFFFFF07
:1039D000FFFFFFFFFFFFFFFFFFFFFFFFFFFFFFFFF7
:1039E000FFFFFFFFFFFFFFFFFFFFFFFFFFFFFFFFE7
:1039F000FFFFFFFFFFFFFFFFFFFFFFFFFFFFFFFFD7
:103A0000FFFFFFFFFFFFFFFF00B5DFF810B0DFF89B
:103A100010A0FFF7A3FB00BD704700BF000000200F
:103A20005C010020FFFFFFFFFFFFFFFFFFFFFFFF25
:00000001FF
