:100000009BEF1BF00000000000EF00F0000000007C
:0A0010000000000000000000F3D71C
:10001C000F0132B302D00000FBD7F0C01DFF12005D
:10002C000F012EB302D00000FBD7F0C029FF120045
:10003C000E01FEB302D00000FBD7F0C0F9FE120097
:0E004C00ACB202D00000FCD7F0C0ADFF120035
:0E005A000001EFB102D08C9A01D08C8A120006
:0E0068000001EFB102D08B9801D08B881200FE
:0E0076000001EFB102D08C9801D08C881200EE
:0E0084000001EFB102D08B9601D08B861200E6
:0E0092000001EFB102D0919E01D0918E1200BC
:1000A0000001EFB103D00E01E59902D00E01E58900
:0200B00012003C
:0E00B2000001EFB102D0899001D089801200C8
:0E00C0000001EFB102D08C9C01D08C8C12009C
:0E00CE000001EFB102D08C9C01D08C8C12008E
:0E00DC000001EFB102D08C9A01D08C8A120084
:0E00EA000001EFB102D0919C01D0918C120068
:1000F8000001EFB103D00E01E59702D00E01E587AC
:020108001200E3
:0E010A000001EFB102D08C9801D08C88120059
:0E0118000001EFB102D08F9401D08F8412004D
:0E0126000001EFB102D08F9201D08F82120043
:0E0134000001EFB102D08E9A01D08E8A120027
:0E0142000001EFB102D08A9801D08A88120025
:0E0150000001EFB102D08E9401D08E84120017
:0E015E000001EFB102D0899A01D0898A120007
:0E016C000001EFB102D08A9401D08A84120003
:0E017A000001EFB102D08C9A01D08C8A1200E5
:0E0188000001EFB102D08C9801D08C881200DB
:0E0196000001EFB102D08B9601D08B861200D3
:0E01A4000001EFB102D08B9801D08B881200C1
:0E01B2000001EFB102D08B9E01D08B8E1200A7
:0E01C0000001EFB102D08B9C01D08B8C12009D
:0E01CE000001EFB102D08C9C01D08C8C12008D
:0E01DC000001EFB102D08B9C01D08B8C120081
:0E01EA000001EFB102D08B9601D08B8612007F
:0E01F8000001EFB102D08A9601D08A86120073
:0E0206000001EFB102D08B9E01D08B8E120052
:100214000001EFB103D00E01E59D02D00E01E58D82
:020224001200C6
:100226000001EFB103D00E01E59B02D00E01E58B74
:020236001200B4
:0E0238000001EFB102D08B9801D08B8812002C
:0E0246000001EFB102D0899801D08988120022
:0E0254000001EFB102D0919801D09188120004
:100262000001EFB103D00E01E59302D00E01E58348
:02027200120078
:08027400EFC0F0F0E1DE120022
:0E027C000001EFB102D0899601D089861200F0
:0E028A000001EFB102D08C9801D08C881200D8
:0E0298000001EFB102D08F9801D08F881200C4
:0E02A6000001EFB102D08C9C01D08C8C1200B4
:0E02B4000001EFB102D08C9A01D08C8A1200AA
:0802C200EFC0F0F0BADE1200FB
:0802CA00EFC0F0F0BEDE1200EF
:0802D200EFC0F0F0BADE1200EB
:0C02DA00550E7E6EAA0E7E6E669C120011
:0C02E600550E7E6EAA0E7E6E668C120015
:0802F200EFC0F0F09ADE1200EB
:0802FA00EFC0F0F096DE1200E7
:08030200EFC0F0F08ADE1200EA
:08030A00EFC0F0F086DE1200E6
:0E0312000001EFB102D08A9001D08A80120063
:0E0320000001EFB102D08A9A01D08A8A120041
:0E032E000001EFB102D08F9401D08F84120035
:0E033C000001EFB102D08C9801D08C88120025
:0E034A000001EFB102D08E9C01D08E8C12000B
:0E0358000001EFB102D08B9801D08B8812000B
:0E0366000001EFB102D0899201D0898212000D
:0E0374000001EFB102D08F9201D08F821200F3
:0E0382000001EFB102D08B9601D08B861200E5
:0E0390000001EFB102D08C9A01D08C8A1200CD
:0E039E000001EFB102D08B9601D08B861200C9
:0E03AC000001EFB102D08B9801D08B881200B7
:0E03BA000001EFB102D08D9001D08D801200B5
:0E03C8000001EFB102D08D9201D08D821200A3
:1003D6000001EFB103D00E01E59502D00E01E585CF
:0203E600120003
:0E03E8000001EFB102D08C9C01D08C8C120071
:0E03F6000001EFB102D0899401D08984120079
:0E0404000001EFB102D0919A01D0918A12004E
:100412001ECF01F00F0133A302D03399338901C0FB
:0404220000F01200D4
:0A042600000EACB2010E006E1200D1
:0A043000000EA4BA010E006E1200C7
:10043A002ACF01F00F012FA302D02F992F8901C0D3
:04044A0000F01200AC
:0C044E00000E0F0132B3010E006E120010
:0A045A00000E9EBA010E006E1200A3
:10046400C7B409D01F0EC514016E0150000A03E180
:0A047400010E006E01D0006A1200B4
:0C047E00000E0E01FEB3010E006E120015
:10048A00F250026EF29E0500FF6A0150FE6E0050A5
:08049A00FD6E02BEF28E12009D
:1004A200AECF01F0ABA202D0AB98AB8801C000F096
:0204B200120036
:1004B4000F011AB509D01F0E1815016E0150000A5C
:0C04C40003E1010E006E01D0006A12007E
:1004D0000001EA512E0803E2006AAAEF0AF0EB518C
:1004E000000AD8A47ED2ED5301E0F7DEB9D1EC5179
:1004F0000E01121372D20E01ECC000F00036009013
:100500000036009000360090003600900050121324
:1005100064D20001EC510E0113135FD20E01ECC046
:1005200000F0003600900036009000360090003653
:1005300000900050131351D20001EC510E0114131E
:100540004CD20E01ECC000F0003600900036009056
:100550000036009000360090005014133ED2000187
:10056000EC510E01151339D20E01ECC000F000362B
:100570000090003600900036009000360090005049
:1005800015132BD20001EC510E01161326D20E01C9
:10059000ECC000F00036009000360090003600906D
:1005A000003600900050161318D20001EC510E01D5
:1005B000171313D20E01ECC000F000360090003685
:1005C000009000360090003600900050171305D2BE
:1005D0000001EC510E01181300D20E01ECC000F026
:1005E00000360090003600900036009000360090F3
:1005F00000501813F2D10001EC510E011913EDD186
:100600000E01ECC000F0003600900036009000367D
:1006100000900036009000501913DFD10001EC511A
:100620000E011A13DAD10E01ECC000F00036009072
:1006300000360090003600900036009000501A13EB
:10064000CCD10001EC510E011B13C7D10E01ECC03F
:1006500000F0003600900036009000360090003622
:10066000009000501B13B9D10001EC510E011C1376
:10067000B4D10E01ECC000F00036009000360090BE
:10068000003600900036009000501C13A6D10001E7
:10069000EC510E011D13A1D10E01ECC000F000368B
:1006A0000090003600900036009000360090005018
:1006B0001D1393D10001EC510E011E138ED10E01BA
:1006C000ECC000F00036009000360090003600903C
:1006D0000036009000501E1380D10001EC510E0135
:1006E0001F137BD10E01ECC000F0003600900036E5
:1006F0000090003600900036009000501F136DD11E
:100700000001EC510E01201368D10E01ECC000F085
:1007100000360090003600900036009000360090C1
:10072000005020135AD10001EC510E01211355D174
:100730000E01ECC000F0003600900036009000364C
:100740000090003600900050211347D10001EC5179
:100750000E01221342D10E01ECC000F000360090D1
:1007600000360090003600900036009000502213B2
:1007700034D10001EC510E0123132FD10E01ECC036
:1007800000F00036009000360090003600900036F1
:1007900000900050231321D10001EC510E012413CD
:1007A0001CD10E01ECC000F0003600900036009025
:1007B0000036009000360090005024130ED1000146
:1007C000EC510E01251309D10E01ECC000F00036EA
:1007D00000900036009000360090003600900050E7
:1007E0002513FBD00001EC510E012613F6D00E01AB
:1007F000ECC000F00036009000360090003600900B
:100800000036009000502613E8D00001EC510E0194
:100810002713E3D00E01ECC000F000360090003644
:100820000090003600900036009000502713D5D07D
:100830000001EC510E012813D0D00E01ECC000F0E5
:100840000036009000360090003600900036009090
:1008500000502813C2D00001EC510E012913BDD065
:100860000001EA51000AD8B442D6EA51010AD8B4CC
:1008700042D6EA51020AD8B44CD6EA51030AD8B497
:100880004DD6EA51040AD8B457D6EA51050AD8B46D
:1008900058D6EA51060AD8B462D6EA51070AD8B443
:1008A00063D6EA51080AD8B46DD6EA51090AD8B419
:1008B0006ED6EA510A0AD8B478D6EA510B0AD8B4EF
:1008C00079D6EA510C0AD8B483D6EA510D0AD8B4C5
:1008D00084D6EA510E0AD8B48ED6EA510F0AD8B49B
:1008E0008FD6EA51100AD8B499D6EA51110AD8B471
:1008F0009AD6EA51120AD8B4A4D6EA51130AD8B447
:10090000A5D6EA51140AD8B4AFD6EA51150AD8B41C
:10091000B0D6EA51160AD8B4BAD6EA51170AD8B4F2
:10092000BBD6EA51180AD8B4C5D6EA51190AD8B4C8
:10093000C6D6EA511A0AD8B4D0D6EA511B0AD8B49E
:10094000D1D6EA511C0AD8B4DBD6EA511D0AD8B474
:10095000DCD6EA511E0AD8B4E6D6EA511F0AD8B44A
:10096000E7D6EA51200AD8B4F1D6EA51210AD8B420
:10097000F2D6EA51220AD8B4FCD6EA51230AD8B4F6
:10098000FDD6EA51240AD8B407D7EA51250AD8B4CB
:1009900008D7EA51260AD8B412D7EA51270AD8B4A0
:1009A00013D7EA51280AD8B41DD7EA51290AD8B476
:1009B0001ED7EA512A0AD8B428D7EA512B0AD8B44C
:1009C00029D7EA512C0AD8B433D7EA512D0AD8B422
:1009D00034D7EA512E0AD8B43ED70001ED5301E0D6
:1009E00082DCEB51010AD8A4DCD3ED5301E075DCC5
:1009F000EAC0EEF0EE33EE9FEE33EE9FF4D2F00E4F
:100A00000E012A15006E00500001EE110E012A6F32
:100A1000C3D30E01EEC001F0013601900136019002
:100A200001360190013601900F0E2A15006E00501C
:100A300001102A6FB1D30E01F00E2B15006E00507D
:100A40000001EE110E012B6FA7D30E01EEC001F0D5
:100A50000136019001360190013601900136019076
:100A60000F0E2B15006E005001102B6F95D30E0149
:100A7000F00E2C15006E00500001EE110E012C6FCF
:100A80008BD30E01EEC001F00136019001360190CA
:100A900001360190013601900F0E2C15006E0050AA
:100AA00001102C6F79D30E01F00E2D15006E005041
:100AB0000001EE110E012D6F6FD30E01EEC001F09B
:100AC0000136019001360190013601900136019006
:100AD0000F0E2D15006E005001102D6F5DD30E010D
:100AE000F00E2E15006E00500001EE110E012E6F5B
:100AF00053D30E01EEC001F0013601900136019092
:100B000001360190013601900F0E2E15006E005037
:100B100001102E6F41D30E01F00E2F15006E005004
:100B20000001EE110E012F6F37D30E01EEC001F060
:100B30000136019001360190013601900136019095
:100B40000F0E2F15006E005001102F6F25D30E01D0
:100B5000F00E3015006E00500001EE110E01306FE6
:100B60001BD30E01EEC001F0013601900136019059
:100B700001360190013601900F0E3015006E0050C5
:100B80000110306F09D30E01F00E3115006E0050C8
:100B90000001EE110E01316FFFD20E01EEC001F027
:100BA0000136019001360190013601900136019025
:100BB0000F0E3115006E00500110316FEDD20E0195
:100BC000F00E3215006E00500001EE110E01326F72
:100BD000E3D20E01EEC001F0013601900136019022
:100BE00001360190013601900F0E3215006E005053
:100BF0000110326FD1D20E01F00E3315006E00508D
:100C00000001EE110E01336FC7D20E01EEC001F0EC
:100C100001360190013601900136019001360190B4
:100C20000F0E3315006E00500110336FB5D20E0158
:100C3000F00E3415006E00500001EE110E01346FFD
:100C4000ABD20E01EEC001F00136019001360190E9
:100C500001360190013601900F0E3415006E0050E0
:100C60000110346F99D20E01F00E3515006E005050
:100C70000001EE110E01356F8FD20E01EEC001F0B2
:100C80000136019001360190013601900136019044
:100C90000F0E3515006E00500110356F7DD20E011C
:100CA000F00E3615006E00500001EE110E01366F89
:100CB00073D20E01EEC001F00136019001360190B1
:100CC00001360190013601900F0E3615006E00506E
:100CD0000110366F61D20E01F00E3715006E005014
:100CE0000001EE110E01376F57D20E01EEC001F078
:100CF00001360190013601900136019001360190D4
:100D00000F0E3715006E00500110376F45D20E01DF
:100D1000F00E3815006E00500001EE110E01386F14
:100D20003BD20E01EEC001F0013601900136019078
:100D300001360190013601900F0E3815006E0050FB
:100D40000110386F29D20E01F00E3915006E0050D7
:100D50000001EE110E01396F1FD20E01EEC001F03D
:100D60000136019001360190013601900136019063
:100D70000F0E3915006E00500110396F0DD20E01A3
:100D8000F00E3A15006E00500001EE110E013A6FA0
:100D900003D20E01EEC001F0013601900136019040
:100DA00001360190013601900F0E3A15006E005089
:100DB00001103A6FF1D10E01F00E3B15006E00509C
:100DC0000001EE110E013B6FE7D10E01EEC001F004
:100DD00001360190013601900136019001360190F3
:100DE0000F0E3B15006E005001103B6FD5D10E0168
:100DF000F00E3C15006E00500001EE110E013C6F2C
:100E0000CBD10E01EEC001F0013601900136019008
:100E100001360190013601900F0E3C15006E005016
:100E200001103C6FB9D10E01F00E3D15006E00505F
:100E30000001EE110E013D6FAFD10E01EEC001F0C9
:100E40000136019001360190013601900136019082
:100E50000F0E3D15006E005001103D6F9DD10E012B
:100E6000F00E3E15006E00500001EE110E013E6FB7
:100E700093D10E01EEC001F00136019001360190D0
:100E800001360190013601900F0E3E15006E0050A4
:100E900001103E6F81D10E01F00E3F15006E005023
:100EA0000001EE110E013F6F77D10E01EEC001F08F
:100EB0000136019001360190013601900136019012
:100EC0000F0E3F15006E005001103F6F65D10E01EF
:100ED000F00E4015006E00500001EE110E01406F43
:100EE0005BD10E01EEC001F0013601900136019098
:100EF00001360190013601900F0E4015006E005032
:100F00000110406F49D10E01F00E4115006E0050E6
:100F10000001EE110E01416F3FD10E01EEC001F054
:100F200001360190013601900136019001360190A1
:100F30000F0E4115006E00500110416F2DD10E01B2
:100F4000F00E4215006E00500001EE110E01426FCE
:100F500023D10E01EEC001F001360190013601905F
:100F600001360190013601900F0E4215006E0050BF
:100F70000110426F11D10E01F00E4315006E0050AA
:100F80000001EE110E01436F07D10E01EEC001F01A
:100F90000136019001360190013601900136019031
:100FA0000F0E4315006E00500110436FF5D00E0177
:100FB000F00E4415006E00500001EE110E01446F5A
:100FC000EBD00E01EEC001F0013601900136019028
:100FD00001360190013601900F0E4415006E00504D
:100FE0000110446FD9D00001EC51000AD8B407D5E4
:100FF000EC51010AD8B40DD5EC51020AD8B41BD576
:10100000EC51030AD8B421D5EC51040AD8B42FD539
:10101000EC51050AD8B435D5EC51060AD8B443D5FD
:10102000EC51070AD8B449D5EC51080AD8B457D5C1
:10103000EC51090AD8B45DD5EC510A0AD8B46BD585
:10104000EC510B0AD8B471D5EC510C0AD8B47FD549
:10105000EC510D0AD8B485D5EC510E0AD8B493D50D
:10106000EC510F0AD8B499D5EC51100AD8B4A7D5D1
:10107000EC51110AD8B4ADD5EC51120AD8B4BBD595
:10108000EC51130AD8B4C1D5EC51140AD8B4CFD559
:10109000EC51150AD8B4D5D5EC51160AD8B4E3D51D
:1010A000EC51170AD8B4E9D5EC51180AD8B4F7D5E1
:1010B000EC51190AD8B4FDD5EC511A0AD8B40BD6A4
:1010C000EC511B0AD8B411D6EC511C0AD8B41FD667
:1010D000EC511D0AD8B425D6EC511E0AD8B433D62B
:1010E000EC511F0AD8B439D6EC51200AD8B447D6EF
:1010F000EC51210AD8B44DD6EC51220AD8B45BD6B3
:10110000EC51230AD8B461D6EC51240AD8B46FD676
:10111000EC51250AD8B475D6EC51260AD8B483D63A
:10112000EC51270AD8B489D6EC51280AD8B497D6FE
:10113000EC51290AD8B49DD6EC512A0AD8B4ABD6C2
:10114000EC512B0AD8B4B1D6EC512C0AD8B4BFD686
:10115000EC512D0AD8B4C5D6EC512E0AD8B4D3D64A
:10116000EC512F0AD8B4D9D6EC51300AD8B4E7D60E
:10117000EC51310AD8B4EDD6EC51320AD8B4FBD6D2
:10118000EC51330AD8B401D7EC51340AD8B40FD794
:10119000EC51350AD8B415D70001ED5302E073ECD9
:1011A00001F01AD1EBB102D0929001D09280D0D14F
:1011B000EBB102D0929201D09282CAD1EBB102D0AF
:1011C000929401D09284C4D1EBB102D0929601D016
:1011D0009286BED1EBB102D0929801D09288B8D15C
:1011E000EBB102D0929A01D0928AB2D1EBB102D087
:1011F000929C01D0928CACD1EBB102D0939601D0ED
:101200009386A6D1EBB102D0939001D09380A0D168
:10121000EBB102D0939201D093829AD1EBB102D07C
:10122000929E01D0928E94D1EBB102D0949401D0D1
:1012300094848ED1EBB102D0939801D0938888D159
:10124000EBB102D0939A01D0938A82D1EBB102D054
:10125000939401D093847CD1EBB102D0949601D0C9
:10126000948676D1EBB102D0949A01D0948A70D151
:10127000EBB102D0949801D094886AD1EBB102D03E
:10128000949C01D0948C64D1EBB102D0949E01D097
:10129000948E5ED1EBB102D0959001D0958058D15B
:1012A000EBB102D0959201D0958252D1EBB102D030
:1012B000959401D095844CD1EBB102D0959601D094
:1012C000958646D1EBB102D0959801D0958840D152
:1012D000EBB102D0959A01D0958A3AD1EBB102D008
:1012E000959C01D0958C34D1EBB102D0959E01D064
:1012F000958E2ED1EBB102D0969001D0968028D158
:10130000EBB102D0969201D0968222D1EBB102D0FD
:10131000969401D096841CD1EBB102D0969E01D058
:10132000968E16D1EBB102D0969801D0968810D146
:10133000EBB102D0969601D096860AD1EBB102D0DD
:10134000969C01D0968C04D1EBB102D0979A01D033
:10135000978AFED0EBB102D0979401D09784F8D051
:10136000EBB102D0969A01D0968AF2D0EBB102D0BE
:10137000979E01D0978EECD0EBB102D0989201D01D
:101380009882E6D0EBB102D0979C01D0978CE0D048
:10139000EBB102D0979601D09786DAD0EBB102D0AC
:1013A000989401D09884D4D0EBB102D0989601D013
:1013B0009886CED0EBB102D0989801D09888C8D04A
:1013C000EBB102D0979801D09788C2D0EBB102D090
:1013D000989001D09880BCD0EA51000AD8B4E2D6E7
:1013E000EA51010AD8B4E4D6EA51020AD8B4E6D6E2
:1013F000EA51030AD8B4E8D6EA51040AD8B4EAD6C6
:10140000EA51050AD8B4ECD6EA51060AD8B4EED6A9
:10141000EA51070AD8B4F0D6EA51080AD8B4F2D68D
:10142000EA51090AD8B4F4D6EA510A0AD8B4F6D671
:10143000EA510B0AD8B4F8D6EA510C0AD8B4FAD655
:10144000EA510D0AD8B4FCD6EA510E0AD8B4FED639
:10145000EA510F0AD8B400D7EA51100AD8B402D71B
:10146000EA51110AD8B404D7EA51120AD8B406D7FF
:10147000EA51130AD8B408D7EA51140AD8B40AD7E3
:10148000EA51150AD8B40CD7EA51160AD8B40ED7C7
:10149000EA51170AD8B410D7EA51180AD8B412D7AB
:1014A000EA51190AD8B414D7EA511A0AD8B416D78F
:1014B000EA511B0AD8B418D7EA511C0AD8B41AD773
:1014C000EA511D0AD8B41CD7EA511E0AD8B41ED757
:1014D000EA511F0AD8B420D7EA51200AD8B422D73B
:1014E000EA51210AD8B424D7EA51220AD8B426D71F
:1014F000EA51230AD8B428D7EA51240AD8B42AD703
:10150000EA51250AD8B42CD7EA51260AD8B42ED7E6
:10151000EA51270AD8B430D7EA51280AD8B432D7CA
:10152000EA51290AD8B434D7EA512A0AD8B436D7AE
:10153000EA512B0AD8B438D7EA512C0AD8B43AD792
:10154000EA512D0AD8B43CD7EA512E0AD8B43ED776
:06155000FF0E006E120008
:0A155600000EA6BE010E006E12008A
:0C156000000E0F012EB3010E006E1200F1
:10156C00FACE01F00E01FFA302D0FF99FF8901C052
:04157C0000F0120069
:0A158000000EA6BA010E006E120064
:06158A002DEC02F012003E
:0615900051EC02F0120014
:1015960031C0E6F032C0E7F033C0E8F034C0E9F01D
:1015A6000001E46BE56BE551120802E1E4518E0897
:1015B60009E35AEC02F0005201E004D00001E44BCA
:1015C600E52BF1D70001120EE55D02E18F0EE45D19
:1015D60003E37B0E006E28D00F0118810F0118A1BE
:1015E60022D031503210331034101CE00001E65185
:1015F600E711E811E9110FE17FC0E1FF80C0E2FFCA
:10160600050EE66E7DC000F07EC001F045EC02F0EE
:10161600010E006E09D0010E0001E65F000EE75BC9
:0A162600E85BE95BDBD7006A120005
:0616300018EC02F01200AC
:0616360009EC02F01200B5
:06163C0027EC02F0120091
:0416420094DF12001F
:0416460087DF120028
:0C164A00000E0E01E4B5010E006E12004F
:061656002DEC02F0120071
:06165C0051EC02F0120047
:0616620013EC02F012007F
:041668008BDF120002
:06166C001DEC02F012006B
:0616720027EC02F012005B
:041678006EDF12000F
:04167C0077DF120002
:061680003FEC02F0120035
:0616860018EC02F0120056
:06168C0009EC02F012005F
:0416920066DF1200FD
:0416960074DF1200EB
:06169A001DEC02F012003D
:0416A0005FDF1200F6
:0A16A400000E82B6010E006E120067
:0A16AE00000E82B8010E006E12005B
:0A16B800000E82B8010E006E120051
:0A16C200000E81B6010E006E12004A
:0C16CC00000E0E01E4BB010E006E1200C7
:0A16D800000E83BC010E006E12002C
:0A16E200000E80B8010E006E120029
:0C16EC00000E0E01E4BD010E006E1200A5
:0A16F800000E85B4010E006E120012
:0C170200000E0E01E4B7010E006E120094
:0A170E00000E83B8010E006E1200F9
:0A171800000E83BA010E006E1200ED
:0A172200000E88BC010E006E1200DC
:0A172C00000E82BC010E006E1200D8
:0A173600000E86B4010E006E1200D2
:0A174000000E80B2010E006E1200D0
:0A174A00000E82BE010E006E1200B8
:0A175400000E83BA010E006E1200B1
:10175E002DC0E4F02EC0E5F02FC0E6F030C0E7F06B
:10176E00C582C5A220D02D502E102F1030101AE099
:10177E000001E451E511E611E7110DE177C0E1FF3B
:10178E0078C0E2FF060EE66E75C000F076C001F07E
:10179E0045EC02F008D0010E0001E45F000EE55B9F
:0817AE00E65BE75BDED71200E9
:0417B600C5841200D4
:1017BA0031C0E6F032C0E7F033C0E8F034C0E9F0F7
:1017CA00A19C0F011887A1BC20D0315032103310D0
:1017DA0034101AE00001E651E711E811E9110DE1B0
:1017EA007FC0E1FF80C0E2FF030EE66E7DC000F01D
:1017FA007EC001F045EC02F008D0010E0001E65F60
:10180A00000EE75BE85BE95BDED7000103CFE5F09A
:10181A00E451000A03E10F01188B02D00F01189B53
:10182A00A19C188931C0E6F032C0E7F033C0E8F075
:10183A0034C0E9F0A1BC20D031503210331034103A
:10184A001AE00001E651E711E811E9110DE17FC044
:10185A00E1FF80C0E2FF030EE66E7DC000F07EC0AD
:10186A0001F045EC02F008D0010E0001E65F000E1F
:0E187A00E75BE85BE95BDED7E5C000F012003B
:10188800A19CE4C003FF31C0E5F032C0E6F033C0EC
:10189800E7F034C0E8F00F011AA522D03150321019
:1018A800331034101CE00001E551E611E711E8118E
:1018B8000FE17FC0E1FF80C0E2FF040EE66E7DC04D
:1018C80000F07EC001F045EC02F0010E006E3CD045
:1018D800010E0001E55F000EE65BE75BE85BDBD726
:1018E80031C0E5F032C0E6F033C0E7F034C0E8F0CC
:1018F800A1BC22D031503210331034101CE000014A
:10190800E551E611E711E8110FE17FC0E1FF80C062
:10191800E2FF040EE66E7DC000F07EC001F045ECEB
:1019280002F0010E006E10D0010E0001E55F000EFE
:10193800E65BE75BE85BDCD70F0118BD02D0006A05
:0A19480003D01885020E006E120095
:061952000F0118851200D0
:10195800E4C0EAF0E5C0EBF0E6C0ECF0010E0001EF
:08196800ED6F68EC02F01200C3
:1019700031C0E4F032C0E5F033C0E6F034C0E7F047
:101980000F0118830F0118A320D0315032103310EB
:1019900034101AE00001E451E511E611E7110DE100
:1019A0007FC0E1FF80C0E2FF060EE66E7DC000F062
:1019B0007EC001F045EC02F008D0010E0001E45FAA
:0C19C000000EE55BE65BE75BDDD7120084
:1019CC002DC0E6F02EC0E7F02FC0E8F030C0E9F0F3
:1019DC000001E46BE56BE551120802E1E4518E085D
:1019EC0009E332EC02F0005201E004D00001E44BB8
:1019FC00E52BF1D70001120EE55D02E18F0EE45DDF
:101A0C0003E37B0E006E25D0C580C5A021D02D50E0
:101A1C002E102F1030101BE0E651E711E811E911E0
:101A2C000FE177C0E1FF78C0E2FF050EE66E75C0EE
:101A3C0000F076C001F045EC02F0010E006E09D00A
:101A4C00010E0001E65F000EE75BE85BE95BDDD7AA
:041A5C00006A12000A
:101A60009E96E4C0C9FF2DC0E5F02EC0E6F02FC061
:101A7000E7F030C0E8F0C7A422D02D502E102F1070
:101A800030101CE00001E551E611E711E8110FE10B
:101A900077C0E1FF78C0E2FF040EE66E75C000F08B
:101AA00076C001F045EC02F0010E006E3BD0010E55
:101AB0000001E55F000EE65BE75BE85BDCD72DC06D
:101AC000E5F02EC0E6F02FC0E7F030C0E8F09EB69B
:101AD00022D02D502E102F1030101CE00001E551A7
:101AE000E611E711E8110FE177C0E1FF78C0E2FFEE
:101AF000040EE66E75C000F076C001F045EC02F011
:101B0000010E006E0FD0010E0001E55F000EE65BD6
:101B1000E75BE85BDCD7C5BC02D0006A03D0C584B4
:061B2000020E006E12002F
:0A1B2600000E81B4010E006E1200E3
:0A1B3000000E82BE010E006E1200CE
:0A1B3A00000E83B8010E006E1200C9
:0A1B4400000E80BA010E006E1200C0
:0A1B4E00000E82B8010E006E1200B6
:101B58002DC0E6F02EC0E7F02FC0E8F030C0E9F065
:101B68009E96C5869EB620D02D502E102F10301070
:101B78001AE00001E651E711E811E9110DE177C01B
:101B8800E1FF78C0E2FF030EE66E75C000F076C094
:101B980001F045EC02F008D0010E0001E65F000EEE
:101BA800E75BE85BE95BDED70001C9CFE5F0E4510C
:101BB800000A02E1C58A01D0C59A9E96C5882DC043
:101BC800E6F02EC0E7F02FC0E8F030C0E9F09EB68E
:101BD80020D02D502E102F1030101AE00001E651A1
:101BE800E711E811E9110DE177C0E1FF78C0E2FFE4
:101BF800030EE66E75C000F076C001F045EC02F009
:101C080008D0010E0001E65F000EE75BE85BE95BC8
:081C1800DED7E5C000F0120068
:0A1C2000000E82BC010E006E1200DF
:0A1C2A00000E82B6010E006E1200DB
:0A1C3400000E86B2010E006E1200D1
:0C1C3E00000E0E01E4B3010E006E120057
:0A1C4A00000E80B4010E006E1200BF
:0A1C5400000E84B2010E006E1200B3
:0A1C5E00000E82B6010E006E1200A7
:0A1C6800000E83BC010E006E120096
:0A1C7200000E83BA010E006E12008E
:0A1C7C00000E88BA010E006E12007F
:0A1C8600000E82B8010E006E12007D
:0A1C9000000E84B0010E006E120079
:061C9A003FEC02F0120015
:0A1CA000000E83BC010E006E12005E
:0A1CAA00000E80B6010E006E12005D
:0A1CB400000E88B8010E006E120049
:0A1CBE00000E81B0010E006E12004E
:0A1CC800000E86B8010E006E120037
:0A1CD200000E83BA010E006E12002E
:0A1CDC00000E83B8010E006E120026
:0A1CE600000E82B6010E006E12001F
:0A1CF000000E88BE010E006E120007
:0A1CFA00000E83BC010E006E120004
:0A1D0400000E83BA010E006E1200FB
:0A1D0E00000E83B8010E006E1200F3
:0C1D1800000E0E01E4B9010E006E120076
:0A1D2400000E83BC010E006E1200D9
:0A1D2E00000E80B0010E006E1200DE
:0A1D3800000E82B8010E006E1200CA
:0A1D4200000E85BA010E006E1200BB
:0A1D4C00000E83B8010E006E1200B5
:0A1D5600000E86B2010E006E1200AE
:0A1D6000000E85BC010E006E12009B
:0A1D6A00000E81BA010E006E120097
:0A1D7400000E81B8010E006E12008F
:0A1D7E00000E82B6010E006E120086
:0A1D8800000E86B4010E006E12007A
:061D920013EC02F0120048
:101D98000F01328B900E336FA4AA03D01ECF00F030
:041DA800FBD7120053
:101DAC00120E0001E46FE56B010EE66FCFDD130E32
:0C1DBC00E46F010EE56FE66BC9DD12005C
:101DC800AC8A900EAB6E9EAA03D0AECF00F0FBD7C4
:021DD8001200F7
:101DDA00270E0001E46FE56B020EE66FB8DD2A0EEE
:0E1DEA00E46F010EE56F020EE66FB1DD120030
:101DF800D4C0B5F0D5C0B6F0D6C0B7F0D7C0B8F0EB
:101E0800D8C0B1F0D9C0B2F0DAC0B3F0DBC0B4F0DA
:101E1800DCC095F0DDC096F0DEC097F0DFC098F02A
:101E2800E0C099F0E1C09AF0E2C09BF0E3C09CF0FA
:021E3800120096
:101E3A000F012E8B900E2F6FA6AA03D02ACF00F087
:041E4A00FBD71200B0
:101E4E000001CA6BCB6BB9C000F0BAC001F045EC13
:101E5E0002F000C0CAF0000E0001CB6FCAC000F045
:061E6E00CBC001F01200E0
:101E7400B2DF360ED46F160ED56F000ED66F000E7D
:101E8400D76F020ED86F030ED96FEF0EDA6F000E04
:101E9400DB6F300EDC6F160EDD6F000EDE6F000E92
:101EA400DF6F3C0EE06F160EE16F000EE26F000E66
:081EB400E36FA0DF6FDF1200F5
:101EBC000001D26BD36BCBC0D0F0CCC0D1F0CAC078
:101ECC0000F0003600906FC0E1FF70C0E2FF00C070
:101EDC00E6FF6DC000F06EC001F045EC02F0005062
:101EEC000001D213000ED313CDC000F0CEC001F010
:101EFC00010ECD5F000ECE5B0050011018E06FC0DC
:101F0C00E1FF70C0E2FFD0C0E9FFD1C0EAFFEECF25
:101F1C00E6FF6DC000F06EC001F045EC02F0005021
:101F2C000001D213000ED313D04BD12BDDD7CF51E0
:101F3C00000A06E189C000F08AC001F045EC02F00D
:101F4C000001CF51010A06E171C000F072C001F02E
:0E1F5C0045EC02F0D2C000F0D3C001F012003C
:101F6A00640E0001796F040E7A6F000E7B6F000E0B
:101F7A007C6FCC0E816F190E826F000E836F000E7C
:101F8A00846F5E0E856F170E866F000E876F000EC8
:101F9A00886F580E656F1B0E666FE40E676F000E32
:101FAA00686F600E696F1A0E6A6FE40E6B6F000E2F
:101FBA006C6FB60E8D6F170E8E6F000E8F6F000E40
:101FCA00906F949894968B988B9694889486C79ED3
:081FDA00C79C380EC66E120010
:101FE2006C0E0001D46F160ED56F000ED66F000E68
:101FF200D76FFA0ED86F020ED96FEF0EDA6F000E9E
:10200200DB6F680EDC6F160EDD6F000EDE6F000EEA
:10201200DF6F920EE06F160EE16F000EE26F000EA0
:08202200E36FE9DE09DF1200A3
:10202A00C0DE5C0ED46F160ED56F000ED66F000E92
:10203A00D76FCA0ED86F020ED96FEF0EDA6F000E85
:10204A00DB6F560EDC6F160EDD6F000EDE6F000EB4
:10205A00DF6F620EE06F160EE16F000EE26F000E88
:08206A00E36FC5DEACDE1200DD
:102072000E01476B466B456BC4C0C7F0C5C0C8F0C4
:10208200C6C0C9F00BD0A00EC86E6EDF44D0280EB9
:10209200C86E6ADF40D0040E006E3FD0C7C0F6FFA4
:1020A200C8C0F7FFC9C0F8FF0900F5CF01F0090069
:1020B200F5CF02F00900F5CF03F00900F5CF04F0E7
:1020C2000450000A08E10350010A05E10250860AA1
:1020D20002E10150A00AD7E0C7C0F6FFC8C0F7FF6F
:1020E200C9C0F8FF0900F5CF01F00900F5CF02F0F1
:1020F2000900F5CF03F00900F5CF04F00450000AFF
:1021020008E10350060A05E102501A0A02E10150F1
:0C211200800ABDE0C0D7000E006E120075
:10211E000E01476B466B456BC4C0C7F0C5C0C8F017
:10212E00C6C0C9F00BD0A00EC86E18DF44D0280E62
:10213E00C86E14DF40D0040E006E3FD0C7C0F6FF4D
:10214E00C8C0F7FFC9C0F8FF0900F5CF01F00900BC
:10215E00F5CF02F00900F5CF03F00900F5CF04F03A
:10216E000450000A08E10350010A05E10250860AF4
:10217E0002E10150A00AD7E0C7C0F6FFC8C0F7FFC2
:10218E00C9C0F8FF0900F5CF01F00900F5CF02F044
:10219E000900F5CF03F00900F5CF04F00450000A52
:1021AE0008E10350060A05E102501A0A02E1015045
:0C21BE00800ABDE0C0D7000E006E1200C9
:1021CA000E01476B466B456BC4C0C7F0C5C0C8F06B
:1021DA00C6C0C9F00BD0A00EC86EC2DE44D0280E0D
:1021EA00C86EBEDE40D0040E006E3FD0C7C0F6FFF8
:1021FA00C8C0F7FFC9C0F8FF0900F5CF01F0090010
:10220A00F5CF02F00900F5CF03F00900F5CF04F08D
:10221A000450000A08E10350010A05E10250860A47
:10222A0002E10150A00AD7E0C7C0F6FFC8C0F7FF15
:10223A00C9C0F8FF0900F5CF01F00900F5CF02F097
:10224A000900F5CF03F00900F5CF04F00450000AA5
:10225A0008E10350060A05E102501A0A02E1015098
:0C226A00800ABDE0C0D7000E006E12001C
:102276000E01476B466B38D067860D0E0F01306F27
:10228600040EAF6EAC84CEDE7ED06786060E0F01DE
:10229600306F820EAF6EAC84C5DE75D06786030ED6
:1022A6000F01306F400EAF6EAC84BCDE6CD067861B
:1022B600010E0F01306FA00EAF6EAC84B3DE63D09B
:1022C6006786010E0F01306F150EAF6EAC84AADE65
:1022D6005AD067860F01306B8A0EAF6EAC84A2DED1
:1022E60052D0060E006E59D0000E006E0001C719BE
:1022F60008E10050C61905E1120EC51902E1C451E4
:10230600C00ABAE0000E006EC71908E10050C619EF
:1023160005E1250EC51902E1C451800AB6E0000E9A
:10232600006EC71908E10050C61905E14B0EC51924
:1023360002E1C451000AB2E0000E006EC71908E1BE
:102346000050C61905E1960EC51902E1C451000AEE
:10235600AEE0000E006EC71908E10050C61905E18F
:10236600E10EC51902E1C451000AAAE0C751000AEC
:1023760008E1C651010A05E1C551C20A02E1C4518C
:10238600000AA7E0AED70001CA0EA56F020EA66F1F
:0C239600EF0EA76F000EA86F006A120087
:1023A2000E01476B466B010E0001E46FE56B020EF6
:1023B200E66FACEC0CF0E46B010EE56F040EE66F19
:1023C200ACEC0CF038D00F012D870D0E2C6F040EE3
:1023D2002B6F2E8505DE7ED00F012D87060E2C6F0A
:1023E200820E2B6F2E85FCDD75D00F012D87030E1B
:1023F2002C6F400E2B6F2E85F3DD6CD00F012D87D5
:10240200010E2C6FA00E2B6F2E85EADD63D00F011B
:102412002D87010E2C6F150E2B6F2E85E1DD5AD004
:102422000F012D872C6B8A0E2B6F2E85D9DD52D092
:10243200060E006E59D0000E006E0001C71908E1A9
:102442000050C61905E1120EC51902E1C451C00AB5
:10245200BAE0000E006EC71908E10050C61905E186
:10246200250EC51902E1C451800AB6E0000E006EC5
:10247200C71908E10050C61905E14B0EC51902E162
:10248200C451000AB2E0000E006EC71908E1005004
:10249200C61905E1960EC51902E1C451000AAEE063
:1024A200000E006EC71908E10050C61905E1E10EE1
:1024B200C51902E1C451000AAAE0C751000A08E1A5
:1024C200C651010A05E1C551C20A02E1C451000A1E
:1024D200A7E0AED70001FA0EA56F020EA66FEF0EAF
:0A24E200A76F000EA86F006A120039
:1024EC000E01476B466B456BC4C0C7F0C5C0C8F046
:1024FC00C6C0C9F00BD0A00EC86E31DD44D0280E7A
:10250C00C86E2DDD40D0040E006E3FD0C7C0F6FF64
:10251C00C8C0F7FFC9C0F8FF0900F5CF01F00900EA
:10252C00F5CF02F00900F5CF03F00900F5CF04F068
:10253C000450000A08E10350010A05E10250860A22
:10254C0002E10150A00AD7E0C7C0F6FFC8C0F7FFF0
:10255C00C9C0F8FF0900F5CF01F00900F5CF02F072
:10256C000900F5CF03F00900F5CF04F00450000A80
:10257C0008E10350060A05E102501A0A02E1015073
:0C258C00800ABDE0C0D7000E006E1200F7
:1025980059D00001C5B102D0929201D0928278D070
:1025A8000001C5B102D09A9C01D09A8C71D000016B
:1025B800C5B103D00E01E69702D00E01E68768D0B8
:1025C8000001C5B102D0959C01D0958C61D0000165
:1025D800C5B102D0959A01D0958A5AD00001C5B1EB
:1025E80002D0959801D0958853D00001C5B102D08A
:1025F800979A01D0978A4CD00001C5B102D0939820
:1026080001D0938845D00001C5B102D0989401D07B
:1026180098843ED00001C5B102D0989201D098822A
:1026280037D00001C5B102D0949601D0948630D03D
:102638000001C5B102D0949801D0948829D0010E28
:10264800006E28D00001C451000AA3E0C451010A59
:10265800A7E0C451020AABE0C451030AB1E0C45177
:10266800040AB5E0C451050AB9E0C451060ABDE040
:10267800C451070AC1E0C451080AC5E0C451090A97
:10268800C9E0C4510A0ACDE0C4510B0AD1E0D7D73A
:06269800000E006E1200AE
:10269E0059D00001C5B102D0929401D0928478D065
:1026AE000001C5B102D09A9A01D09A8A71D0000168
:1026BE00C5B103D00E01E69502D00E01E68568D0B5
:1026CE000001C5B102D0959C01D0958C61D000015E
:1026DE00C5B102D0959A01D0958A5AD00001C5B1E4
:1026EE0002D0959801D0958853D00001C5B102D083
:1026FE00979C01D0978C4CD00001C5B102D0939A13
:10270E0001D0938A45D00001C5B102D0989401D072
:10271E0098843ED00001C5B102D0989201D0988223
:10272E0037D00001C5B102D0949601D0948630D036
:10273E000001C5B102D0949801D0948829D0010E21
:10274E00006E28D00001C451000AA3E0C451010A52
:10275E00A7E0C451020AABE0C451030AB1E0C45170
:10276E00040AB5E0C451050AB9E0C451060ABDE039
:10277E00C451070AC1E0C451080AC5E0C451090A90
:10278E00C9E0C4510A0ACDE0C4510B0AD1E0D7D733
:06279E00000E006E1200A7
:1027A40059D00001C5B102D0929601D0928678D05A
:1027B4000001C5B102D09A9801D09A8871D0000165
:1027C400C5B103D00E01E69302D00E01E68368D0B2
:1027D4000001C5B102D0959C01D0958C61D0000157
:1027E400C5B102D0959A01D0958A5AD00001C5B1DD
:1027F40002D0959801D0958853D00001C5B102D07C
:10280400989801D098884CD00001C5B102D093901B
:1028140001D0938045D00001C5B102D0969001D07B
:1028240096803ED00001C5B102D0969201D0968226
:1028340037D00001C5B102D0949601D0948630D02F
:102844000001C5B102D0949801D0948829D0010E1A
:10285400006E28D00001C451000AA3E0C451010A4B
:10286400A7E0C451020AABE0C451030AB1E0C45169
:10287400040AB5E0C451050AB9E0C451060ABDE032
:10288400C451070AC1E0C451080AC5E0C451090A89
:10289400C9E0C4510A0ACDE0C4510B0AD1E0D7D72C
:0628A400000E006E1200A0
:1028AA000E01476B466B456BC4C0C7F0C5C0C8F084
:1028BA00C6C0C9F00DD0A00EC86EB5EC0FF045D059
:1028CA00280EC86EB5EC0FF040D0040E006E3FD053
:1028DA00C7C0F6FFC8C0F7FFC9C0F8FF0900F5CFA7
:1028EA0001F00900F5CF02F00900F5CF03F0090065
:1028FA00F5CF04F00450000A08E10350010A05E18B
:10290A000250860A02E10150A00AD5E0C7C0F6FFCC
:10291A00C8C0F7FFC9C0F8FF0900F5CF01F00900E8
:10292A00F5CF02F00900F5CF03F00900F5CF04F066
:10293A000450000A08E10350060A05E102501A0A87
:10294A0002E10150800ABCE0C0D7000E006E1200FE
:10295A005BD00001C5B102D0929801D092887AD09A
:10296A000001C5B103D00E01E69D02D00E01E68D2D
:10297A0071D00001C5B103D00E01E69B02D00E0151
:10298A00E68B68D00001C5B102D0959C01D0958C28
:10299A0061D00001C5B102D0959A01D0958A5AD06A
:1029AA000001C5B102D0959801D0958853D0000195
:1029BA00C5B102D0929A01D0928A4CD00001C5B119
:1029CA0002D0939401D0938445D00001C5B102D0BE
:1029DA00949E01D0948E3ED00001C5B102D0949C41
:1029EA0001D0948C37D00001C5B102D0949601D0A1
:1029FA00948630D00001C5B102D0949801D0948851
:102A0A0029D0010E006E28D00001C451000AA1E0AD
:102A1A00C451010AA5E0C451020AABE0C451030A39
:102A2A00B1E0C451040AB5E0C451050AB9E0C45181
:102A3A00060ABDE0C451070AC1E0C451080AC5E04C
:102A4A00C451090AC9E0C4510A0ACDE0C4510B0AAB
:0A2A5A00D1E0D7D7000E006E120085
:102A640059D00001C5B102D0929001D0928078D0A3
:102A74000001C5B102D09A9E01D09A8E71D0000196
:102A8400C5B103D00E01E69902D00E01E68968D0E3
:102A94000001C5B102D0959C01D0958C61D0000194
:102AA400C5B102D0959A01D0958A5AD00001C5B11A
:102AB40002D0959801D0958853D00001C5B102D0B9
:102AC400979401D097844CD00001C5B102D093965D
:102AD40001D0938645D00001C5B102D0949E01D0A7
:102AE400948E3ED00001C5B102D0949C01D0948C48
:102AF40037D00001C5B102D0949601D0948630D06D
:102B04000001C5B102D0949801D0948829D0010E57
:102B1400006E28D00001C451000AA3E0C451010A88
:102B2400A7E0C451020AABE0C451030AB1E0C451A6
:102B3400040AB5E0C451050AB9E0C451060ABDE06F
:102B4400C451070AC1E0C451080AC5E0C451090AC6
:102B5400C9E0C4510A0ACDE0C4510B0AD1E0D7D769
:062B6400000E006E1200DD
:102B6A000E01476B466B3ED00F0131870D0E206F69
:102B7A00040E1F6F32853AEC0FF083D00F013187B4
:102B8A00060E206F820E1F6F32853AEC0FF079D055
:102B9A000F013187030E206F400E1F6F32853AEC0A
:102BAA000FF06FD00F013187010E206FA00E1F6F3B
:102BBA0032853AEC0FF065D00F013187010E206F94
:102BCA00150E1F6F32853AEC0FF05BD00F0131877B
:102BDA00206B8A0E1F6F32853AEC0FF052D0060E28
:102BEA00006E59D0000E006E0001C71908E10050AE
:102BFA00C61905E1120EC51902E1C451C00AB4E0B2
:102C0A00000E006EC71908E10050C61905E1250E2D
:102C1A00C51902E1C451800AB1E0000E006EC7195D
:102C2A0008E10050C61905E14B0EC51902E1C4516D
:102C3A00000AAEE0000E006EC71908E10050C6197E
:102C4A0005E1960EC51902E1C451000AABE0000E77
:102C5A00006EC71908E10050C61905E1E10EC51951
:102C6A0002E1C451000AA8E0C751000A08E1C651AE
:102C7A00010A05E1C551C20A02E1C451000AA6E0EF
:102C8A00AED70001020EA56F030EA66FEF0EA76F57
:082C9A00000EA86F006A120091
:102CA200560E0001C56FC4C0C6F027EC0FF05FC01E
:102CB200CAF0C50ECB6F000ECC6F020ECD6F000EA8
:0A2CC200CE6FCF6B5EEC0FF0120036
:102CCC00C4C0F6FFC5C0F7FFC6C0F8FF0900F5CFBA
:102CDC00B9F00900F5CFBAF00900F5CFBBF0090047
:102CEC00F5CFBCF0040E0001C425F66E000EC52114
:102CFC00F76E000EC621F86E0900F5CF89F00900B9
:102D0C00F5CF8AF00900F5CF8BF00900F5CF8CF0E8
:102D1C00080EC425F66E000EC521F76E000EC621F6
:102D2C00F86E0900F5CF71F00900F5CF72F00900CB
:102D3C00F5CF73F00900F5CF74F00C0EC425F66EC8
:102D4C00000EC521F76E000EC621F86E0900F5CFF6
:102D5C006DF00900F5CF6EF00900F5CF6FF00900AA
:102D6C00F5CF70F0100EC425F66E000EC521F76E6F
:102D7C00000EC621F86E0900F5CF61F00900F5CF01
:102D8C0062F00900F5CF63F00900F5CF64F0120092
:102D9C00300E0001C425006E000EC521016E000E20
:102DAC00C621026E00C0F6FF01C0F7FF02C0F8FF9B
:102DBC000900F5CFA1F00900F5CFA2F00900F5CF7D
:102DCC00A3F00900F5CFA4F01C0E0024F66E000E43
:102DDC000120F76E000E0220F86E0900F5CFADF061
:102DEC000900F5CFAEF00900F5CFAFF00900F5CF33
:102DFC00B0F0080EC425F66E000EC521F76E000E5D
:102E0C00C621F86E0900F5CFA9F00900F5CFAAF09C
:102E1C000900F5CFABF00900F5CFACF0040EC425DA
:102E2C00F66E000EC521F76E000EC621F86E090075
:102E3C00F5CF9DF00900F5CF9EF00900F5CF9FF07E
:102E4C000900F5CFA0F0180EC425F66E000EC521B2
:102E5C00F76E000EC621F86E0900F5CF91F009004F
:102E6C00F5CF92F00900F5CF93F00900F5CF94F06F
:022E7C00120042
:102E7E00A7C0E1FFA8C0E2FFC4C0E9FFC5C0EAFFDA
:102E8E00EECFE6FFA5C000F0A6C001F045EC02F0C3
:042E9E00006A1200B4
:102EA2000E01476B466B3ED067860D0E0F01306FE9
:102EB200040EAF6EAC8415EC10F083D06786060E5C
:102EC2000F01306F820EAF6EAC8415EC10F079D02A
:102ED2006786030E0F01306F400EAF6EAC8415ECA7
:102EE20010F06FD06786010E0F01306FA00EAF6E2B
:102EF200AC8415EC10F065D06786010E0F01306FBF
:102F0200150EAF6EAC8415EC10F05BD067860F0126
:102F1200306B8A0EAF6EAC8415EC10F052D0060EF8
:102F2200006E59D0000E006E0001C71908E1005072
:102F3200C61905E1120EC51902E1C451C00AB4E076
:102F4200000E006EC71908E10050C61905E1250EF2
:102F5200C51902E1C451800AB1E0000E006EC71922
:102F620008E10050C61905E14B0EC51902E1C45132
:102F7200000AAEE0000E006EC71908E10050C61943
:102F820005E1960EC51902E1C451000AABE0000E3C
:102F9200006EC71908E10050C61905E1E10EC51916
:102FA20002E1C451000AA8E0C751000A08E1C65173
:102FB200010A05E1C551C20A02E1C451000AA6E0B4
:102FC200AED70001CA0EA56F020EA66FEF0EA76F55
:082FD200000EA86F006A120056
:102FDA000E01476B466B3ED067860D0E0F01306FB0
:102FEA00040EAF6EAC8415EC10F083D06786060E23
:102FFA000F01306F820EAF6EAC8415EC10F079D0F1
:10300A006786030E0F01306F400EAF6EAC8415EC6D
:10301A0010F06FD06786010E0F01306FA00EAF6EF1
:10302A00AC8415EC10F065D06786010E0F01306F85
:10303A00150EAF6EAC8415EC10F05BD067860F01ED
:10304A00306B8A0EAF6EAC8415EC10F052D0060EBF
:10305A00006E59D0000E006E0001C71908E1005039
:10306A00C61905E1120EC51902E1C451C00AB4E03D
:10307A00000E006EC71908E10050C61905E1250EB9
:10308A00C51902E1C451800AB1E0000E006EC719E9
:10309A0008E10050C61905E14B0EC51902E1C451F9
:1030AA00000AAEE0000E006EC71908E10050C6190A
:1030BA0005E1960EC51902E1C451000AABE0000E03
:1030CA00006EC71908E10050C61905E1E10EC519DD
:1030DA0002E1C451000AA8E0C751000A08E1C6513A
:1030EA00010A05E1C551C20A02E1C451000AA6E07B
:1030FA00AED70001CA0EA56F020EA66FEF0EA76F1C
:08310A00000EA86F006A12001C
:103112000E01476B466B3ED00F0131870D0E206FBB
:10312200040E1F6F32853AEC0FF083D00F01318706
:10313200060E206F820E1F6F32853AEC0FF079D0A7
:103142000F013187030E206F400E1F6F32853AEC5C
:103152000FF06FD00F013187010E206FA00E1F6F8D
:1031620032853AEC0FF065D00F013187010E206FE6
:10317200150E1F6F32853AEC0FF05BD00F013187CD
:10318200206B8A0E1F6F32853AEC0FF052D0060E7A
:10319200006E59D0000E006E0001C71908E1005000
:1031A200C61905E1120EC51902E1C451C00AB4E004
:1031B200000E006EC71908E10050C61905E1250E80
:1031C200C51902E1C451800AB1E0000E006EC719B0
:1031D20008E10050C61905E14B0EC51902E1C451C0
:1031E200000AAEE0000E006EC71908E10050C619D1
:1031F20005E1960EC51902E1C451000AABE0000ECA
:10320200006EC71908E10050C61905E1E10EC519A3
:1032120002E1C451000AA8E0C751000A08E1C65100
:10322200010A05E1C551C20A02E1C451000AA6E041
:10323200AED70001020EA56F030EA66FEF0EA76FA9
:08324200000EA86F006A1200E3
:10324A0026D0BEC0C4F0BFC0C5F0D2EC13F030D057
:10325A00BEC0C4F0BFC0C5F04FEC13F029D0BEC049
:10326A00C4F0BFC0C5F0CCEC12F022D0BEC0C4F08E
:10327A00BFC0C5F032EC15F01BD0BEC0C4F0BFC051
:10328A00C5F0ADEC14F014D0010E006E11D000019F
:10329A00BD51000AD6E0BD51010ADAE0BD51020A69
:1032AA00DEE0BD51030AE2E0BD51040AE6E0ECD7D4
:0232BA00120000
:1032BC00C3C05FF0C0C0C4F0C1C0C5F0C2C0C6F08E
:1032CC00FFDCBDC0C4F0BEC0C5F0BFC0C6F060DD41
:1032DC00ABC0E1FFACC0E2FF010EE66EA9C000F08E
:0A32EC00AAC001F045EC02F0120048
:1032F600BDC0BFF0BEC0C0F0010E0001C46FCEDC81
:1033060027EC0FF05FC0CAF0BF0ECB6F000ECC6F7C
:10331600020ECD6F000ECE6FCF6B5EEC0FF012007B
:1033260041D0BEC0C4F0BFC0C5F0C0C0C6F0C1C069
:10333600C7F0D1EC11F04AD0BEC0C4F0BFC0C5F092
:10334600C0C0C6F0C1C0C7F0E1DE40D0BEC0C4F008
:10335600BFC0C5F0C0C0C6F0C1C0C7F003DC36D0E0
:10336600BEC0C4F0BFC0C5F0C0C0C6F0C1C0C7F083
:1033760031DE2CD0BEC0C4F0BFC0C5F0C0C0C6F0A0
:10338600C1C0C7F08BDD22D0BEC0C4F0BFC0C5F03F
:10339600C0C0C6F0C1C0C7F03BEC11F017D0010E9B
:1033A600006E14D00001BD51000ABBE0BD51010AF8
:1033B600C3E0BD51020ACAE0BD51030AD1E0BD51C6
:0E33C600040AD8E0BD51100ADFE0E9D712007A
:1033D400BDC0C0F0BEC0C1F00D0E0001606F0A0E8A
:1033E400C26F35D0C0C0C4F0C1C0C5F046DD3AD00C
:1033F400C0C0E9FFC1C0EAFFEE5209E0C0C0C4F09A
:10340400C1C0C5F03ADD0001C04BC12BF1D72AD0B1
:10341400C0C0E9FFC1C0EAFFEE5209E0C0C0C4F079
:10342400C1C0C5F02ADD0001C04BC12BF1D700019A
:10343400600EC46F000EC56F20DDC20E0001C46FA4
:10344400000EC56F1ADD0ED0060E006E0CD0000102
:10345400BF51000AC7E0BF51010ACAE0BF51020AC6
:08346400D7E0F2D7006A120064
:10346C0030D0BEC0C4F0BFC0C5F0C0C0C6F055EC73
:10347C0014F038D0BEC0C4F0BFC0C5F0C0C0C6F098
:10348C00E5EC10F02FD0BEC0C4F0BFC0C5F0C0C07A
:10349C00C6F08FEC10F026D0BEC0C4F0BFC0C5F093
:1034AC00C0C0C6F039EC10F01DD0BEC0C4F0BFC017
:1034BC00C5F0C0C0C6F076EC12F014D0010E006E50
:1034CC0011D00001BD51000ACCE0BD51010AD2E07F
:1034DC00BD51020AD8E0BD51030ADEE0BD51040A19
:0634EC00E4E0ECD7120041
:1034F2000001BD6B070EBE6F010EBF6FA5DE00019E
:10350200BD6BBE6B010EBF6F9FDE0001BD6B010E76
:10351200BE6FBF6B99DE0001BD6B020EBE6FBF6B4B
:1035220093DE0001BD6B060EBE6FBF6B8DDE000128
:10353200BD6B020EBE6F380EBF6F000EC06F95DFFF
:10354200100E0001BD6F800EBE6F250EBF6F000E04
:10355200C06FC16FE7DE090E0B6E1E0E0C6EE40E1D
:103562000D6E0D2EFED70C2EFCD70B2EFAD70000B7
:02357200120045
:103574000900F5CFE6FF0006FBE10106F9E11200C0
:103584002C0E0001BD6F000EBE6F020EBF6F20DF58
:10359400150E0001BD6F000EBE6F020EBF6F18DF67
:1035A400440E0001BD6F370EBE6F000EBF6FEE0EEE
:1035B400C06F370EC16F000EC26F320EC36F7CDE58
:1035C400090E0B6E1E0E0C6EE40E0D6E0D2EFED744
:1035D4000C2EFCD70B2EFAD70000000E0001BD6F95
:1035E400BE6B87DE010E0001BD6FBE6B82DE020E74
:1035F4000001BD6F0D0EBE6F7CDE030E0001BD6FBA
:10360400330EBE6F76DE040E0001BD6FBE6B71DE3D
:10361400050E0001BD6FCC0EBE6F6BDE060E000101
:10362400BD6F330EBE6F65DE070E0001BD6F080E61
:10363400BE6F5FDE080E0001BD6F120EBE6F59DE55
:10364400090E0001BD6FBE6B54DE0A0E0001BD6F92
:10365400BE6B4FDE0B0E0001BD6F010EBE6F49DE67
:103664000C0E0001BD6F7F0EBE6F43DE0D0E000118
:10367400BD6F7F0EBE6F3DDE0E0E0001BD6F370EB7
:10368400BE6F37DE0F0E0001BD6F110EBE6F31DE4F
:10369400100E0001BD6F100EBE6F2BDE110E000167
:1036A400BD6FC30EBE6F25DE120E0001BD6F110E7D
:1036B400BE6F1FDE130E0001BD6F020EBE6F19DE5A
:1036C400140E0001BD6FA20EBE6F13DE150E0001B5
:1036D400BD6F0C0EBE6F0DDE160E0001BD6F820EA7
:1036E400BE6F07DE170E0001BD6F3F0EBE6F01DE19
:0E36F400180E0001BD6F400EBE6FFBDD120010
:10370200020E0A6E960E0B6ED80E0C6E080E0D6E21
:103712000D2EFED70C2EFCD70B2EFAD70A2EF8D779
:103722000000350E0001BD6F000EBE6F020EBF6FAE
:0437320050DE120053
:0E37360003EC1CF0DBDE23DFE1DFFED7FFD764
:1038060010EE15F04A0E006E010E016EA40EF66E55
:0E381600370EF76E000EF86EBAEC1AF01200C4
:103744007C02EF005402EF006202EF00A602EF00D9
:10375400B402EF008A02EF009802EF001203EF00B8
:10376400BA03EF00C803EF009E03EF00AC03EF00C1
:10377400AA1C0000B41C00003E1C0000A01C000099
:10378400D21C0000DC1C0000C81C0000BE1C000091
:10379400901C0000541C00005E1C0000861C0000ED
:1037A400202A2A2A2A2A2041505020494E495420AE
:0737B4002A2A2A2A2A20001C
:0137BB00000D
:0437BC000000000009
:0437C0000000000005
:1037C4005F5F5F5F5F5F5F5F5F5F5F5F5F5F5F5F05
:1037D4005F5F5F5F5F5F5F5F5F5F5F5F5F5F5F5FF5
:0A37E4005F5F5F5F5F5F5F5F5F0084
:1037EE00CC190000B61700005E170000601AE40046
:0437FE00581BE40070
:04380200A08601009B
:020000040001F9
:10FFF00080F70BFC22F0FFF7FBFEFFFC1DF0F8F290
:00000001FF
